:100000000C9472000C949B000C949B000C949B002D
:100010000C949B000C949B000C949B000C949B00F4
:100020000C949B000C949B000C949B000C949B00E4
:100030000C949B000C949B000C949B000C949B00D4
:100040000C949B000C949B000C949B000C949B00C4
:100050000C949B000C949B000C949B000C949B00B4
:100060000C949B000C949B000C949B000C949B00A4
:100070000C949B000C949B000C949B000C949B0094
:100080000C949B000C949B000C949B000C949B0084
:100090000C949B000C949B000C949B000C949B0074
:1000A0000C949B000C949B000C949B000C949B0064
:1000B0000C949B000C949B000C949B000C949B0054
:1000C0000C949B000C949B000C949B000C949B0044
:1000D0000C949B000C949B000C949B000C949B0034
:1000E0000C949B0011241FBECFEFD1E2DEBFCDBF29
:1000F00000E00CBF0E9480000C947E00F894FFCFBB
:100100000E949700119A2FEF89E698E121508040D4
:100110009040E1F700C0000011982FEF89E698E1C8
:0E012000215080409040E1F700C00000EBCF7E
:08012E0081B18FEF81B9089542
:040136000C94000025
:00000001FF
