:100000000C9472000C948D000C948D000C948D0057
:100010000C948D000C948D000C948D000C948D002C
:100020000C948D000C948D000C948D000C948D001C
:100030000C948D000C948D000C948D000C948D000C
:100040000C948D000C948D000C948D000C948D00FC
:100050000C948D000C948D000C948D000C948D00EC
:100060000C948D000C948D000C948D000C948D00DC
:100070000C948D000C948D000C948D000C948D00CC
:100080000C948D000C948D000C948D000C948D00BC
:100090000C948D000C948D000C948D000C948D00AC
:1000A0000C948D000C948D000C948D000C948D009C
:1000B0000C948D000C948D000C948D000C948D008C
:1000C0000C948D000C948D000C948D000C948D007C
:1000D0000C948D000C948D000C948D000C948D006C
:1000E0000C948D0011241FBECFEFD1E2DEBFCDBF37
:1000F00000E00CBF0E9480000C947E00F894FFCFBB
:1001000080E887B986B92FE33DE093E02150304085
:0A0110009040E1F700C00000F5CFB9
:04011A000C94000041
:00000001FF
