S0140000446973706C6179426F6172642E7372656352
S113000071C000008EC000008CC0000097C00000CA
S11300109FC00000A7C00000AFC0000082C0000065
S113002080C000007EC000007CC00000AFC00000A3
S11300307BC0000076C0000074C0000072C00000E5
S113004070C000006EC000006CC000006AC00000F8
S113005068C0000066C0000064C00000A1C00000C9
S113006060C000005EC000005CC000005AC0000018
S113007058C0000056C0000054C0000052C0000028
S113008050C000004EC000004CC000004AC0000038
S113009048C0000046C0000044C00000ABC30000DC
S11300A040C000003EC000003CC000003AC0000058
S11300B038C0000036C0000034C0000032C0000068
S11300C030C000002EC000002CC000002AC0000078
S11300D028C0000026C0000022C400004DC4000057
S11300E020C0000011241FBECFEFD1E2DEBFCDBF80
S11300F000E00CBF12E0A0E0B2E0E4E6FAE000E0C9
S11301000BBF02C007900D92A434B107D9F722E0C7
S1130110A4E4B2E001C01D92A43DB207E1F74AD0C5
S11301209FC46ECFECC008951F920F920FB60F922A
S113013011240F900FBE0F901F9018951F920F92CD
S11301400FB60F9211240F900FBE0F901F901895A9
S11301501F920F920FB60F9211240F900FBE0F90A3
S11301601F9018951F920F920FB60F9211240F90A3
S11301700FBE0F901F9018951F920F920FB60F92FB
S113018011240F900FBE0F901F9018951F920F927D
S11301900FB60F9211240F900FBE0F901F90189559
S11301A01F920F920FB60F9211240F900FBE0F9053
S11301B01F901895CF93DF931F921F92CDB7DEB790
S11301C01A821982AFDF89819A81809590959A83EA
S11301D0898389819A81892B21F082B1806182B9D6
S11301E0F2CF82B18F7E82B9EECFE4E6F0E0808177
S11301F08E7F808310927C0081E880937A00109235
S11302007B0080E00895E4E6F0E080818B7F8083CA
S113021080E58CBD08958AB18B7F8AB98BB18B7FC1
S11302208BB98AB1877F8AB98BB1877F8BB98DB13E
S11302308F7E8DB98EB18F7E8EB98DB18F7D8DB944
S11302408EB18F7D8EB9E7E0F1E080818F77808376
S1130250E8E0F1E080818F778083D0C00895C5CF36
S113026008958AB181608AB98BB18E7F8BB98BB1C5
S11302708E7F8BB98AB182608AB98BB18D7F8BB93D
S11302808BB18D7F8BB9A8C2089584B1877F84B95F
S113029085B1877F85B984B1846084B985B18B7F4A
S11302A085B984B1826084B985B18D7F85B9ABCFBE
S11302B00895CFC20895A1E0B1E08C918E7F8C9314
S11302C0E2E0F1E080818E7F80838C9182608C9368
S11302D080818D7F808300C30895A4E0B1E08C9178
S11302E08E7F8C93E5E0F1E080818E7F80838C911A
S11302F082608C9380818D7F80838EC308958FE389
S1130300809365008FEE8093640081B111B882B14F
S11303108FEF82B994B114B895B185B997B117B874
S113032098B188B99AB11AB89BB18BB99DB11DB86F
S11303309EB18EB990B310BA91B381BB93B3907C44
S113034093BB94B39F6394BBE1E0F1E0908110828E
S1130350E2E0F1E090818083E4E0F1E090811082BA
S1130360E5E0F1E090818083E7E0F1E090811082A4
S1130370E8E0F1E090818083EAE0F1E0908110828E
S1130380EBE0F1E09081808381B1816081B982B139
S11303908E7F82B981B1826081B982B18D7F82B949
S11303A081B1846081B982B18B7F82B981B1886067
S11303B081B982B1877F82B981B1806181B982B10B
S11303C08F7E82B981B1806281B982B18F7D82B919
S11303D081B1806481B982B18F7B82B940E060E8E9
S11303E081E690E02ED213BE15BE789414DF37DF79
S11303F038DF4BDF5EDF5FDF70CF08951092690056
S113040010926A008CE38DBB84E08093680080E8DE
S113041080936D0080E0089580E98093BC00E4E45B
S1130420F2E080818E7F808313868EE00895E4E479
S1130430F2E080818E7F8083138680E00895ECEB68
S1130440F0E08081806A808381E00895ECEBF0E045
S11304508081806A808382E00895ECEBF0E0808103
S1130460806A808381E00895ECEBF0E0808180690C
S11304708083DDCF0895A4E4B2E082E01B968C93E0
S11304801B975096ED91FC9151975C968D919C91A0
S11304905D971995823019F0833019F004C0CFCFDD
S11304A00895D4CF0895E0CF08958091B900887F4E
S11304B0883039F08091B900887F803111F0ACCF59
S11304C008958091450290E0880F991F8160809380
S11304D0BB00ECEBF0E080818F7D808380818068BD
S11304E080838AE008958091B900887F883039F04C
S11304F08091B900887F803111F08ECF089580916A
S11305004502880F8093BB00ECEBF0E080818F7D87
S113051080838081806880838BE008958091B90016
S1130520887F803411F0A7CF08958091480290917C
S11305304902019739F4ECEBF0E080818F7B8083F2
S113054084E00895ECEBF0E080818064808384E0B3
S113055008958091B900887F883111F08CCF089577
S113056083E00895ECEBF0E08081806980835FCFC5
S11305700895ECEBF0E08081806A808388E0089540
S11305808091B900887F803351F08091B900887FD1
S1130590883429F08091B900887F8032B1F4A4E4D2
S11305A0B2E05296ED91FC9153975E968D919C9199
S11305B05F971995823019F0833019F004C03FCF4A
S11305C0089544CF089550CF0895E4E4F2E0A28161
S11305D0B381CD010196938382838C918093BB0078
S11305E0ACEBB0E08C9180688C9384819581019709
S11305F095838483892B11F083E0089585E0089521
S11306008091B900887F803539F08091B900887F66
S1130610883511F001CF08958091480290914902E4
S1130620029731F4ECEBF0E080818F7B808305C08E
S1130630ECEBF0E0808180648083E4E4F2E0848188
S11306409581019795838483892B89F0A281B38155
S11306508091BB008C9382819381019693838283E2
S1130660ECEBF0E080818068808384E00895A4E46A
S1130670B2E01296ED91FC9113978091BB008083B8
S113068012968D919C911397019613969C938E9339
S113069012978C9184608C931C96ED91FC911D971C
S11306A058968D919C91599719958250823010F4E7
S11306B060CF089557CF08958091B900887F803323
S11306C051F08091B900887F883429F08091B90075
S11306D0887F8032B1F4A4E4B2E05296ED91FC91AB
S11306E053975E968D919C915F971995823019F07E
S11306F0833019F004C0A3CE0895A8CE0895B4CED3
S11307000895A4E4B2E08C9184608C931C96ED91DE
S1130710FC911D9758968D919C915997199583300A
S113072031F0843031F0823031F489CE08958ECEA8
S1130730089526CF089598CE0895A4E4B2E082E007
S11307401B968C931B971E96ED91FC911F975A96BE
S11307508D919C915B971995823019F0833019F033
S113076004C06DCE089572CE089556CE089580E9E2
S11307708093BC00E4E4F2E080818E7F808382E099
S113078083878EE00895CF93DF938091B900887FAB
S1130790883379F08091B900887F883651F0809150
S11307A0B900887F883729F08091B900887F803B21
S11307B019F480E180934E02C4E4D2E0EA85F0E0CB
S11307C0EE0FFF1FE050FE4F0190F081E02D1995D0
S11307D08A87DF91CF910895E4E6F0E080818F77F6
S11307E0808385E08093BC0080E28093B8001092FF
S11307F0B90008951F920F920FB60F9211240BB6F1
S11308000F922F933F934F935F936F937F938F93A5
S11308109F93AF93BF93EF93FF93B5DFFF91EF9156
S1130820BF91AF919F918F917F916F915F914F9104
S11308303F912F910F900BBE0F900FBE0F901F9002
S113084018952FB7F8941BBEFC01608340832FBF1B
S11308500895E4E6F0E080818F7D808385E085BDA6
S113086081E080936E0080E883BD80E008959091DC
S11308703601E0918D02EF5FEF7380918C02E817EF
S113088059F0E0938D02F0E0E257FD4F90838091A0
S11308908B028F5F80938B02089580916802882376
S11308A089F0E0916902EF5FEF71E0936902F0E093
S11308B0E559FD4F80818093360180916802815013
S11308C08093680280916802811105C0E1E3F1E040
S11308D080818F7D80830895E5E6F0E080818D7FBF
S11308E080831092D50080E18093D40082E08093CD
S11308F0D00088E98093D10086E392E09093D102FE
S11309008093D00280E008959091D00095FFFCCFB1
S11309108093D6000895F8DF80E090E008951F9258
S11309200F920FB60F9211240BB60F922F933F9391
S11309304F935F936F937F938F939F93AF93BF93E3
S1130940EF93FF93E0912602F0912702309709F08C
S11309501995FF91EF91BF91AF919F918F917F91E5
S11309606F915F914F913F912F910F900BBE0F901C
S11309700FBE0F901F9018951F920F920FB60F92F3
S113098011240BB60F922F933F934F935F936F9362
S11309907F938F939F93AF93BF93EF93FF93E091D4
S11309A02402F0912502309709F01995FF91EF91F7
S11309B0BF91AF919F918F917F916F915F914F9173
S11309C03F912F910F900BBE0F900FBE0F901F9071
S11309D0189520916A022F5F2F71909168029032CE
S11309E0E1F3E22FF0E0E559FD4F808320936A02A2
S11309F00FB6F8940F92809168028F5F809368021B
S1130A000F900FBEE1E3F1E080818062808308955E
S1130A10E0DF80E090E00895E5E6F0E080818B7F00
S1130A2080831092350180E18093340182E08093C9
S1130A30300188E98093310110928C0210928D026A
S1130A4010928B021092690210926A02109268024C
S1130A5088E292E09093D1028093D00280E00895DE
S1070A60F894FFCF34
S1130A64170255027302C00200035C031F0226022C
S1130A742D0234028E02A902B202B9020C023B0214
S1130A849D03B7034D043704000000020000000076
S1130A9408050000000000000002000000008B04B0
S1070AA4000000004A
S9030000FC
