S0140000446973706C6179426F6172642E7372656352
S113000071C000008EC000008CC000008AC00000D7
S113001088C0000086C0000084C0000082C00000C8
S113002080C000007EC000007CC000007AC00000D8
S113003078C0000076C0000074C0000072C00000E8
S113004070C000006EC000006CC000006AC00000F8
S113005068C0000066C0000064C0000062C0000008
S113006060C000005EC000005CC000005AC0000018
S113007058C0000056C0000054C0000052C0000028
S113008050C000004EC000004CC000004AC0000038
S113009048C0000046C0000044C0000042C0000048
S11300A040C000003EC000003CC000003AC0000058
S11300B038C0000036C0000034C0000032C0000068
S11300C030C000002EC000002CC000002AC0000078
S11300D028C0000026C0000024C0000022C0000088
S11300E020C0000011241FBECFEFD1E2DEBFCDBF80
S11300F000E00CBF12E0A0E0B2E0E4E1F2E000E0D6
S11301000BBF02C007900D92A030B107D9F722E0CF
S1130110A0E0B2E001C01D92A030B207E1F737D0F1
S113012077C06ECFCF93DF931F92CDB7DEB78FEF3B
S113013080936400809365008FB78983F8948981E4
S11301405F9350E85093610050E0509361005F91D9
S11301508FBF0F90DF91CF910895089A099A0A9A58
S11301600B9A0C9A0D9A0E9A1098119A1298139A47
S11301701498159A1698089504C06150710981095C
S113018091096115710581059105B9F70895CF931A
S1130190DF9300D01F92CDB7DEB7C4DF80E094E2D6
S11301A0A4EFB0E089839A83AB83BC8380E092E1BF
S11301B0AAE7B0E089839A83AB83BC8389819A815F
S11301C0AB81BC810A96A11DB11D89839A83AB833F
S11301D0BC83C3DF89819A81AB81BC818C0100958A
S11301E01095892B11F0119A01C0119862E070E00A
S11301F080E090E0C1DF0115110511F0119A01C0F2
S1130200119867E070E080E090E0B6DFC801E6CFC7
S1070210F894FFCF8C
S9030000FC
