:020000040000FA
:100000000C9437020C94892D0C945E2D0C94332D96
:100010000C94082D0C94DD2C0C94B22C0C94872C91
:100020000C945C2C0C9468020C9468020C9468028A
:100030000C94D12E0C9468020C9468020C94680203
:100040000C9468020C9468020C9468020C94680288
:100050000C9468020C9468020C9468020C94122CA4
:100060000C9468020C94DC2B0C94B22B0C94680258
:100070000C9468020C9468020C9468020C94680258
:100080000C9468020C9468020C9468020C94680248
:100090000C9468020C9468020C9468020C94B42DC1
:1000A0000C9468020C9468020C9468020C94680228
:1000B0000C9468020C9468020C9468020C94680218
:1000C0000C9468020C9468020C9468020C94680208
:1000D0000C9468020C9468020C947C2B0C94522BA8
:1000E0000C9468020C94F5030C94F8160C944507D4
:1000F0000C94BD160C9402050C94082F0C941A173E
:100100000C94AE160C94D0040C94E1120C941E4086
:100110000C94E7030C94C2040C94AD210C94D40409
:100120000C94EB040C9481030C94E1040C943503BF
:100130000C94CE060C945D030C94E2160C94D70438
:100140000C9450170C9432230C94EF060C943E1729
:100150000C94E7040C94ED160C9456170C94DF0ADB
:100160000C94A7400C94EE060C94D3030C94600AF4
:100170000C94950C0C9403170C9461410C94180783
:100180000C944A170C9447170C9403050C94C40361
:100190000C9484040C944E2B0C944D170C94F72063
:1001A0000C94B51E0C94F3200C9448410C947440AC
:1001B0000C9439030C94EF200C94C8040C942D2259
:1001C0000C9420090C9408170C9437040C94970392
:1001D0000C9495410C941E260C94CC040C94DD04D4
:1001E0000C9416090C94FD040C94EF040C94FE0678
:1001F0000C9407050C942E400C9453170C94F308A0
:100200000C94B7100C942C2B0C9411070C94F5043F
:100210000C94F9044E414E494E495459494E46CD2D
:10022000CCCC3D0AD7233C17B7D13877CC2B3295AD
:1002300095E6241FB14F0A000020410000C842008B
:10024000401C4620BCBE4CCA1B0E5AAEC59D740055
:10025000407A10F35A00A0724E18090010A5D4E895
:100260000000E87648170000E40B54020000CA9A28
:100270003B000000E1F5050000809698000000407A
:10028000420F000000A086010000001027000000BF
:1002900000E803000000006400000000000A000005
:1002A0000000000100000000002C76D888DC674FB9
:1002B0000823DFC1DFAE59E1B1B796E5E3E453C6E9
:1002C0003AE651997696E8E6C28426EB898C9B62E1
:1002D000ED407C6FFCEFBC9C9F40F2BAA56FA5F48B
:1002E00090055A2AF75C936B6CF9676DC11BFCE0B3
:1002F000E40D47FEF520E6B500D0ED902E03009406
:100300003577050080841E080000204E0A0000009A
:10031000C80C333333330F986E12831141EF8D21A4
:1003200014893BE65516CFFEE6DB18D1844B381B0B
:10033000F77C1D901DA4BBE424203284725E2281D0
:1003400000C9F124ECA1E53D27000021002400278D
:10035000002A002D003000330001010000040107D5
:10036000010A0100002200250028002B002E003188
:1003700000340002010000050108010B010000200B
:10038000002300260029002C002F0032000001006D
:100390000003010601090105050505070508080810
:1003A00008020202020A0A08080404040401010106
:1003B000010101010103030303030303030407070E
:1003C000070C0C0C0C0C0C0C0C02020202060606AC
:1003D00006060606060B0B0B0B0B0B0B0B01021094
:1003E000202008081020401020408002010201084F
:1003F00004020101020408102040808040201008FF
:100400000402018004020180402010080402010857
:1004100004020101020408102040800102040810B7
:1004200020408000000A0B02090C0D0E080703048F
:1004300001000000000000000000000000000000BB
:10044000000000000000000000000000000000129A
:10045000111000000000000000000000000000007B
:1004600000000000000000000000082F954111244A
:100470001FBECFEFD1E2DEBFCDBF00E00CBF11E168
:10048000A0E0B2E0E0EAFDE900E00BBF02C00790A7
:100490000D92A03AB107D9F727E1A0EAB1E101C076
:1004A0001D92A23AB207E1F712E0C6E3D2E000E003
:1004B00006C021970109802FFE010E94CD4AC53355
:1004C000D10780E00807A9F70E94AF320C94BE4E16
:1004D0000C940000FC01A089B18982E08C93A48572
:1004E000B5851C92A685B78580E18C93108EA48972
:1004F000B58986E08C93A289B3898C9180618C93B5
:10050000A289B3898C9188608C93A289B3898C91DC
:1005100080688C930288F389E02D80818F7D8083B1
:100520000895CF92DF92EF92FF92CF93DF932AE16B
:10053000269FF001279FF00D1124E656FA4EC48441
:10054000D5840D2C000CEE08FF08C489D5892285BE
:100550003385032E000C440B550B2C193D094E0915
:100560005F09DC010E94064928EE33E040E050E0DC
:100570000E94DC48CA01B9016C0D7D1D8E1D9F1DB6
:100580000E94A6476B017C01BE010D2E000C880B5A
:10059000990B0E94A6479B01AC01C701B6010E94BE
:1005A000AC490E941E4A6F5F7F4F6C9FC0016D9FD8
:1005B000900D7C9F900D1124DF91CF91FF90EF90D3
:1005C000DF90CF900895CF92DF92EF92FF92CF937A
:1005D000DF93FC01808D918D20853185233131059C
:1005E000E9F1C484D5840D2C000CEE08FF08C48901
:1005F000D58922853385032E000C440B550B2C190D
:100600003D094E095F09DC010E94064928EE33E0EE
:1006100040E050E00E94DC48CA01B9016C0D7D1D2C
:100620008E1D9F1D0E94A6476B017C01BE010D2EF1
:10063000000C880B990B0E94A6479B01AC01C701D7
:10064000B6010E94AC490E941E4A6F5F7F4F6C9FAB
:10065000C0016D9F900D7C9F900D1124DF91CF9173
:10066000FF90EF90DF90CF90089581E08093B011DC
:100670000895F89489B18C708093A9118091A91183
:100680008C3099F48091A711882379F08091AA1178
:100690009091AB1101979093AB118093AA11109296
:1006A000A8111092A711789408958091A91184300F
:1006B000D1F781E08093A811F6CFF89489B18C70BE
:1006C0008093A9118091A9118C3099F48091A8117F
:1006D000882379F08091AA119091AB1101969093A3
:1006E000AB118093AA111092A8111092A7117894BF
:1006F00008958091A9118830D1F781E08093A711E6
:10070000F6CF0895DC01ED91FC910190F081E02D90
:100710001994DB0114964D915C9115976D917C9124
:10072000DC01ED91FC910280F381E02D1994AF92F0
:10073000BF92CF92DF92EF92FF920F931F93CF93CE
:10074000DF936C017B018B01040F151FEB015E0130
:10075000AE18BF08C017D10759F06991D601ED91C5
:10076000FC910190F081E02DC6011995892B79F754
:10077000C501DF91CF911F910F91FF90EF90DF9016
:10078000CF90BF90AF900895FC01538D448D252FDD
:1007900030E0842F90E0821B930B541710F0CF961B
:1007A000089501970895FC01918D828D981761F04D
:1007B000A28DAE0FBF2FB11D5D968C91928D9F5F64
:1007C0009F73928F90E008958FEF9FEF0895FC0143
:1007D000918D828D981731F0828DE80FF11D858DF6
:1007E00090E008958FEF9FEF0895FC01918D228D89
:1007F000892F90E0805C9F4F821B91098F7399270E
:10080000089586EE92E10E94F50321E0892B09F418
:1008100020E0822F089583E893E10E94F50321E010
:10082000892B09F420E0822F0895FC01A48DA80FE4
:10083000B92FB11DA35ABF4F2C91848D90E0019622
:100840008F739927848FA689B7892C93A089B18942
:100850008C91837080648C93938D848D981306C0E3
:100860000288F389E02D80818F7D80830895EF9247
:10087000FF920F931F93CF93DF93EC0181E0888F5A
:100880009B8D8C8D98131AC0E889F989808185FF2A
:1008900015C09FB7F894EE89FF896083E889F989CC
:1008A00080818370806480839FBF81E090E0DF91CE
:1008B000CF911F910F91FF90EF900895F62E0B8D21
:1008C00010E00F5F1F4F0F731127E02E8C8D8E11DC
:1008D0000CC00FB607FCFACFE889F989808185FF43
:1008E000F5CFCE010E941504F1CFEB8DEC0FFD2F5B
:1008F000F11DE35AFF4FF0829FB7F8940B8FEA89FE
:10090000FB8980818062CFCFCF93DF93EC01888D0C
:100910008823B9F0AA89BB89E889F9898C9185FD7A
:1009200003C0808186FD0DC00FB607FCF7CF8C9108
:1009300085FFF2CF808185FFEDCFCE010E941504A7
:10094000E9CFDF91CF9108958150823108F05AC0EC
:10095000E82FF0E08827E055FB4F8F4F0C94CD4AED
:10096000D004D404C204C804CC040205D704DD04B6
:10097000E104E704EB04EF04F504F9040205FD04C7
:1009800003050705809180008F778093800008958C
:10099000809180008F7DF9CF80918000877FF5CF97
:1009A00084B58F7784BD089584B58F7DFBCF80910A
:1009B000B0008F778093B00008958091B0008F7D54
:1009C000F9CF809190008F77809390000895809167
:1009D00090008F7DF9CF80919000877FF5CF809137
:1009E000A0008F778093A00008958091A0008F7D54
:1009F000F9CF8091A000877FF5CF809120018F777C
:100A0000809320010895809120018F7DF9CF8091FE
:100A10002001877FF5CFCF93DF93282F30E0F901B6
:100A2000ED5DFB4F8491F901E352FC4FD491F90144
:100A3000E956FC4FC491CC23A1F081110E94A4047B
:100A4000EC2FF0E0EE0FFF1FE358FC4FA591B4919F
:100A5000EC91ED2381E090E009F480E0DF91CF910B
:100A6000089580E090E0FACF1F93CF93DF93282F73
:100A700030E0F901ED5DFB4F8491F901E352FC4F49
:100A8000D491F901E956FC4FC491CC23A9F0162F5B
:100A900081110E94A404EC2FF0E0EE0FFF1FED592E
:100AA000FC4FA591B4918FB7F894EC91111108C047
:100AB000D095DE23DC938FBFDF91CF911F910895F6
:100AC000DE2BF8CFCF93DF9390E0FC01E352FC4F95
:100AD000249189569C4FFC0184918823D1F090E0A9
:100AE000880F991FFC01E75BFC4FA591B491FC01B5
:100AF000ED59FC4FC591D491623071F49FB7F894D1
:100B00003C91822F809583238C93E8812E2B288320
:100B10009FBFDF91CF9108958FB7F894EC912E2B62
:100B20002C938FBFF6CF0F931F93CF9310929712F2
:100B3000109296121092E3121092E2120CEB10E057
:100B4000F80110821092E112C1E0C093E0121092FD
:100B5000DB1262E084E10E94620562E085E10E94AE
:100B60006205E9EBF0E080818E7F808380818D7F5C
:100B7000808388E48093B80085E4F8018083109234
:100B8000B9121092B812C093DA12C0939512CF9195
:100B90001F910F910895863308F0865320917B00B2
:100BA000982F9870277F922B90937B00877080649A
:100BB00080937C0080917A00806480937A00809199
:100BC0007A0086FDFCCF809178009091790008959D
:100BD0003FB7F89480911F1290912012A09121129A
:100BE000B091221226B5A89B05C02F3F19F001969F
:100BF000A11DB11D3FBFBA2FA92F982F8827BC0177
:100C0000CD01620F711D811D911D42E0660F771F9E
:100C1000881F991F4A95D1F70895CF92DF92EF92DE
:100C2000FF920F931F93CF93C62F613250F0C0E015
:100C30008C2FCF911F910F91FF90EF90DF90CF906D
:100C400008959091E1129111F2CF91E09093E11209
:100C50009093E0122FEF2093DF121092DE12260FF6
:100C60002093DD129093DC129091DC12880F892B77
:100C70008093DC128091DB128130B9F51092DB1287
:100C80008091DC128093BB0085EC8093BC00809146
:100C9000DA12882361F20E94E8058B01AC2FB0E0E4
:100CA000149620EF3DE84CE051E00E94FB4820EA1A
:100CB00036E841E050E00E94DC4869017A01809109
:100CC000E112811114C08091DE128C1710F4C091D2
:100CD000DE12E8E9F2E1AAEBB2E180E08C1709F458
:100CE000A7CF91919D938F5FF9CF85EECECF0E94D4
:100CF000E805601B710BCB01B0E0A0E02091B812B9
:100D00003091B9122C593F4FB701A601420F531F22
:100D1000611D711D481759076A077B0784F687CF45
:100D20008F929F92AF92BF92CF92DF92EF92FF92FB
:100D30004B015C010E94E8056B017C010E94E80503
:100D40006C197D098E099F09683E734081059105E4
:100D5000A8F321E0821A9108A108B10888EEC80E14
:100D600083E0D81EE11CF11C81149104A104B1049C
:100D700029F7FF90EF90DF90CF90BF90AF909F90BA
:100D80008F9008952FB7F89460911B1270911C12E8
:100D900080911D1290911E122FBF0895089585ED28
:100DA0008093BC001092E1120895613298F4209172
:100DB000E112243089F46093F711282FA7EDB1E1F7
:100DC000FC018E2F821B861710F080E00895819120
:100DD0008D93F7CF81E0089582E008950895E09122
:100DE000971280919612E81730F4F0E0E654FD4E29
:100DF000808190E008958FEF9FEF08959091971272
:100E0000809196122FEF3FEF981748F4E92FF0E00A
:100E1000E654FD4E208130E09F5F90939712C90108
:100E200008958091961290919712891B990B0895BD
:100E3000CF92DF92EF92FF920F931F93CF93DF93A6
:100E40007C01CB018A012091E512222389F0EB017C
:100E50006B01C40ED51ECC15DD0569F06991D70173
:100E6000ED91FC910190F081E02DC7011995F3CF30
:100E7000642F0E94D506C801DF91CF911F910F9179
:100E8000FF90EF90DF90CF900895CF93DF931F9264
:100E9000CDB7DEB769832091E5122223F9F02091C6
:100EA000E212203258F021E030E0FC01338322834B
:100EB00090E080E00F90DF91CF9108958091E31250
:100EC000E82FF0E0E954FE4E998190838F5F809384
:100ED000E3128093E21281E090E0ECCF61E0CE017A
:100EE00001960E94D506F7CFCF92DF92EF92FF9244
:100EF0000F931F93CF939091E21281E09132A0F56E
:100F00008091E11281117DC08091E41222E0209352
:100F1000E11221E02093E0122FEF2093DF121092D4
:100F2000DE129093DD12E7EBF1E1A8E9B2E1C0E057
:100F30009C1328C01092DC129091DC12880F892B30
:100F40008093DC128091DB12813001F51092DB126C
:100F50008091DC128093BB0085EC8093BC00809173
:100F60009512811115C080E01092E3121092E212E6
:100F70001092E512CF911F910F91FF90EF90DF90AB
:100F8000CF90089521912D93CF5FD2CF85EEE5CFFD
:100F90000E94E8058B01AC2FB0E0149620EF3DE8ED
:100FA0004CE051E00E94FB4820EA36E841E050E086
:100FB0000E94DC4869017A0184E6C80ED11CE11C5C
:100FC000F11C8091E11281110EC08091DF128F3FE0
:100FD00051F28091DF128032B1F08091DF128033C4
:100FE000A1F084E0C1CF0E94E805601B710BCB012A
:100FF000B0E0A0E0C816D906EA06FB0614F786E0C2
:10100000B3CF85E0B1CF82E0AFCF83E0ADCF3F92E9
:101010004F925F926F927F928F929F92AF92BF9208
:10102000CF92DF92EF92FF920F931F93CF93DF93B4
:101030004B015C017A018901BC01A401420F531FDD
:10104000611D711D8091961590919715A09198152D
:10105000B091991584179507A607B70708F4C1C082
:1010600020E2422E512C332433943BECC32E37E044
:10107000D32EC0919115D091921520919415309155
:101080009515CE01019788219921C81BD90BC20162
:10109000821B930B0817190708F4C8018C179D07CA
:1010A00008F4EC0180919315B501A40104C0769574
:1010B0006795579547958A95D2F760908D15642A64
:1010C000A0918B15B0918C153092E5126092E412CC
:1010D0001092E3121092E2122230310569F4772760
:1010E0006B2D5A2D492DED91FC9111970190F081B6
:1010F000E02DBA01CD01199580918B1590918C1539
:10110000DC01ED91FC910190F081E02D682D1995A5
:1011100080918B1590918C15DC01ED91FC910280F2
:10112000F381E02DAE01B701199580918B15909157
:101130008C150E947407811137C084E6782EC60191
:101140000197F1F780918B1590918C153092E512F3
:101150006092E4121092E3121092E2122091941520
:10116000309195152230310541F4DC01ED91FC916F
:101170000190F081E02D60E0199580918B159091A0
:101180008C15DC01ED91FC910190F081E02D60E087
:10119000199580918B1590918C150E947407882366
:1011A000A9F07A947110CBCFDF91CF911F910F915D
:1011B000FF90EF90DF90CF90BF90AF909F908F9077
:1011C0007F906F905F904F903F9008958C0E9D1E82
:1011D000A11CB11CEC0EFD1E0C1B1D0B09F049CF10
:1011E000E3CF89E0E1CF90E080E00895CF93DF93F3
:1011F000EA0191E09093E5128093E4121092E312D9
:101200001092E21280E294E10E9445076D2F80E285
:1012100094E10E9445076C2F80E294E10E9445070B
:1012200080E294E1DF91CF910C947407FC01148269
:1012300015821682178210861186128613860895EB
:10124000FC01168E178E10A211A284899589019730
:1012500021F410861186128613860895CF93DF93AA
:101260001F921F92CDB7DEB7FC01868997899983BB
:101270008A83608171816C597F4F660F771F072EBB
:10128000000C880B990B22E030E0AE014F5F5F4FFE
:101290000E9407080F900F90DF91CF910895CF9390
:1012A000DF9300D01F92CDB7DEB779836A835B836B
:1012B0004C83BC01990F880B990B24E030E0AE0100
:1012C0004F5F5F4F0E9407080F900F900F900F9095
:1012D000DF91CF9108955F926F927F928F929F924C
:1012E000AF92BF92CF92DF92EF92FF920F931F9334
:1012F000CF93DF934B015C016A018901552453941C
:10130000C0919115D0919215CE0101978821992114
:10131000C81BD90BC8010132110510F080E290E022
:101320008C179D0708F4EC0180919315A501940199
:1013300004C056954795379527958A95D2F7F09032
:101340008D15F22AA0918B15B0918C155092E51253
:10135000F092E4121092E3121092E212209194158E
:10136000309195152230310569F477276B2D5A2D70
:10137000492DED91FC9111970190F081E02DBA017A
:10138000CD01199580918B1590918C15DC01ED9113
:10139000FC910190F081E02D682D199580918B15BD
:1013A00090918C150E947407682E811129C06C2FB2
:1013B0008F2D0E940D061092971280939612712C19
:1013C000E72CF12CEC16FD0688F480918B1590919A
:1013D0008C15DC01ED91FC910284F385E02D1995CB
:1013E000F601EE0DFF1D80837394EACF8C0E9D1ED7
:1013F000A11CB11CCC0EDD1E0C1B1D0B09F080CFF7
:10140000862DDF91CF911F910F91FF90EF90DF908C
:10141000CF90BF90AF909F908F907F906F905F9094
:101420000895CF92DF92EF92FF920F931F93CF9385
:10143000DF9300D01F92CDB7DEB719821A821B82CC
:101440001C82BC01990F880B990B6B017C0124E075
:10145000C20ED11CE11CF11C00919615109197153C
:1014600020919815309199150C151D052E053F05F5
:1014700038F024E030E0AE014F5F5F4F0E946B090F
:1014800069817A8176276727762790E080E0982F18
:10149000872F762F66272B81622B982F872F762F09
:1014A00066272C81622B0F900F900F900F90DF9189
:1014B000CF911F910F91FF90EF90DF90CF90089503
:1014C000CF92DF92EF92FF92CF93DF93EC0164E132
:1014D00070E080E090E00E949006188619861A86D7
:1014E0001B861C821D821E821F828A899B89880F0F
:1014F000991F880F991F82529F4F0E94110A0E94C4
:10150000A64720E030E543EC57E40E94AC496B016C
:101510007C0120E030E0A9010E949F47882369F008
:10152000CAA2DBA2ECA2FDA290E080E0DF91CF9105
:10153000FF90EF90DF90CF9008951AA21BA21CA2FB
:101540001DA2F2CFCF92DF92EF92FF920F931F93E3
:10155000CF93DF931F921F92CDB7DEB7BC01990FD7
:10156000880B990B6B017C0122E0C20ED11CE11C9F
:10157000F11C0091961510919715209198153091B6
:1015800099150C151D052E053F0538F022E030E0B9
:10159000AE014F5F5F4F0E946B09898190E0982FE9
:1015A00088272A81820F911D0F900F90DF91CF9194
:1015B0001F910F91FF90EF90DF90CF900895AF9221
:1015C000BF92CF92DF92EF92FF920F931F93CF9330
:1015D000DF931F921F92CDB7DEB75C0184E090E0ED
:1015E000D50153969C938E9352978CE090E00E9485
:1015F000A20A892B11F102E212E08CE0C82ED12C54
:10160000E12CF12CF801808191810E5F1F4F9983AD
:101610008A8322E030E0AE014F5F5F4FC701B60121
:101620000E940708FFEFCF1ADF0AEF0AFF0A81E1E5
:10163000C816D104E104F10429F719821A8222E0C4
:1016400030E0AE014F5F5F4F6CE070E080E090E013
:101650000E940708D501ED91FC910480F581E02DF1
:10166000C50119950F900F90DF91CF911F910F91A8
:10167000FF90EF90DF90CF90BF90AF900895CF9301
:10168000DF93EC0160E08E810E94340561E08E8181
:101690000E94340560E08E810E9434058BE990E061
:1016A0000197F1F7DF91CF910895CF92DF92EF92FA
:1016B000FF920F931F93CF93DF936C017C0187E020
:1016C000E80EF11CD0E0C0E0062F10E0B8010C2EAF
:1016D00002C0759567950A94E2F76170F7018191F0
:1016E0007F010E9434052196C430D10579F7C601E7
:1016F000DF91CF911F910F91FF90EF90DF90CF90EE
:101700000C943F0BCF92DF92EF92FF920F931F93B7
:10171000CF93DF93EC01F62E642F8C810E94340569
:101720008D818F3F19F060E00E9434050F2D10E08D
:101730008F8584FF25C06E0187E0C80ED11CF12C77
:10174000E12CB8010E2C02C0759567950A94E2F75A
:101750006170F60181916F010E943405FFEFEF1A6D
:10176000FF0A88E0E816F10461F7CE01DF91CF911E
:101770001F910F91FF90EF90DF90CF900C943F0B53
:10178000B80184E0759567958A95E1F7CE010E94CE
:10179000550B6F2DCE01DF91CF911F910F91FF90CF
:1017A000EF90DF90CF900C94550B40E0682F84E8C9
:1017B00097E10C94820B643008F063E090919717E6
:1017C000691710F06FEF690FE62FF0E0EC57F84E55
:1017D0009489890F80680C94D50B81E00E94D50B09
:1017E0008BE39FE10197F1F70895CF93DF93613089
:1017F00029F090919317986090939317609397179F
:101800001092981790E49093991780939A17805CA0
:1018100080939B1761E0809188170E9462058091F8
:1018200089178F3F19F061E00E94620561E08091A5
:101830008A170E946205C4E8D7E19E012458374107
:101840008091931784FD0BC084E090E021962817C7
:10185000390744F461E08E810E946205EECF88E092
:1018600090E0F4CF8BE39DE00197F1F760E0809189
:1018700088170E94340560E080918A170E94340521
:10188000809189178F3F19F060E00E9434058091A4
:10189000931784FD34C063E084E897E10E94550B00
:1018A000CBE4D6E4CE010197F1F763E084E897E159
:1018B0000E94550B2197F1F763E084E897E10E94BD
:1018C000550B83E592E00197F1F762E084E897E138
:1018D0000E94550B8091931780620E94D50B84E083
:1018E000809394178CE00E94D50B0E94ED0B82E050
:1018F0008093951786E0DF91CF910C94D50B806291
:101900000E94D50B8BE496E40197F1F78091931731
:1019100080620E94D50B83E592E00197F1F78091F8
:10192000931780620E94D50BD5CF41E00E94820BB5
:1019300081E090E008950F931F93CF93DF938B0185
:1019400028E0829FC001112480640E94D50BE80129
:10195000085F1F4F699184E897E10E94950CC017BA
:10196000D107C1F7DF91CF911F910F9108950E9488
:10197000CA4BFB0101900020E9F73197AF01461BEC
:10198000570BDC01ED91FC910280F381E02D19945D
:10199000CF93DF93BC0183E893E10E948903EC01BC
:1019A0006DE575E083E893E10E94B90C8C0F9D1FF3
:1019B000DF91CF9108958F929F92AF92BF92EF9255
:1019C000FF920F931F93CF93DF93CDB7DEB7A1970D
:1019D0000FB6F894DEBF0FBECDBF7C01FA01CB017C
:1019E00019A2223008F42AE08E010F5D1F4F822ECB
:1019F000912CB12CA12CBF01A50194010E940E498C
:101A0000F901CA016A300CF5605DD8016E938D0151
:101A1000232B242B252B79F790E080E0109721F0E1
:101A2000BD01C7010E94B90CA1960FB6F894DEBFA4
:101A30000FBECDBFDF91CF911F910F91FF90EF901F
:101A4000BF90AF909F908F900895695CDECFCF924A
:101A5000DF92EF92FF92CF93DF936B017C01F7FE51
:101A600023C06DE283E893E10E948203EC014427E6
:101A70005527BA014C195D096E097F092AE083E8F0
:101A800093E10E94DB0CC80FD91F6DE575E083E878
:101A900093E10E94B90C8C0F9D1FDF91CF91FF90B5
:101AA000EF90DF90CF9008952AE0BC01A60183E873
:101AB00093E10E94DB0CEC01E8CF2F923F924F9212
:101AC0005F926F927F928F929F92AF92BF92CF92CE
:101AD000DF92EF92FF921F93CF93DF93EC016A01A5
:101AE0007B01722EAB019601CB01B6010E949F4A89
:101AF00060E675E0811126C046015701E894B7F809
:101B00002FEF3FEF4FE75FE7C501B4010E949F4A07
:101B100081110CC02FEF3FEF4FE75FE7C501B40124
:101B20000E949F4764E675E0181664F02FEF3FEFC0
:101B30004FE75FE4C701B6010E94544A1816B4F497
:101B400068E675E0CE01DF91CF911F91FF90EF9095
:101B5000DF90CF90BF90AF909F908F907F906F90CD
:101B60005F904F903F902F900C94B90C2FEF3FEF68
:101B70004FE75FECC701B6010E949F4787FDE0CFAA
:101B800020E030E0A901C701B6010E949F47312C37
:101B9000212C87FF09C06DE2CE010E9482031C0147
:101BA000F7FAF094F7F8F09410E060E070E080E06D
:101BB0009FE3711641F020E030E040E251E40E94E2
:101BC000AC491F5FF6CFA70196010E9440492B0147
:101BD0003C010E94254A4B015C012AE0BC01A401A2
:101BE000CE010E94DB0C7C01E20CF31C1123C1F13D
:101BF000C501B4010E94A4479B01AC01C301B2011D
:101C00000E943F494B015C016EE2CE010E948203BB
:101C1000E80EF91E115020F120E030E040E251E4DE
:101C2000C501B4010E9405482B013C010E94254AD0
:101C30004B01B12CA12C2AE0B501A401CE010E94D8
:101C4000DB0CE80EF91EC501B4010E94A4479B01FC
:101C5000AC01C301B2010E943F494B015C01DACFE4
:101C6000C701DF91CF911F91FF90EF90DF90CF9050
:101C7000BF90AF909F908F907F906F905F904F90AC
:101C80003F902F900895CF93DF93242FAB01BC0199
:101C900083E893E10E945D0DEC016DE575E083E85A
:101CA00093E10E94B90C8C0F9D1FDF91CF91089595
:101CB000CF92DF92EF92FF920F931F93CF93DF9318
:101CC0006B01770FEE08FF084A305105F1F42AE066
:101CD000F7FE1CC0EC016DE20E9482038C014427D8
:101CE0005527BA014C195D096E097F092AE0CE011A
:101CF0000E94DB0C800F911FDF91CF911F910F91FC
:101D0000FF90EF90DF90CF900895242FB701A601A8
:101D1000DF91CF911F910F91FF90EF90DF90CF90C7
:101D20000C94DB0CCF93DF93AB01BC0183E893E110
:101D30000E94580EEC016DE575E083E893E10E9486
:101D4000B90C8C0F9D1FDF91CF910895611571051E
:101D500011F00C94B90C90E080E008958230910568
:101D600009F44AC08530910551F1019701F50E94AF
:101D7000ED0B60E080E00E94DB0B6CE675E084E830
:101D800097E10E94A60E61E080E00E94DB0B69E70C
:101D900075E084E897E10E94A60E62E080E00E9470
:101DA000DB0B68E875E084E897E10E94A60E60917D
:101DB000700286E10E9434051092811208950E94FB
:101DC000ED0B60E080E00E94DB0B6CE675E084E8E0
:101DD00097E10E94A60E61E080E00E94DB0B6CE9B7
:101DE00075E084E897E10E94A60E62E080E00E9420
:101DF000DB0B61EB75E0D7CF0E94ED0B60E080E07C
:101E00000E94DB0B6CE675E084E897E10E94A60E69
:101E100061E080E00E94DB0B66EC75E084E897E10E
:101E20000E94A60E62E080E00E94DB0B62ED75E08E
:101E3000BACF10926C1210926B1289E20E940B05BD
:101E40008091651290916612A0916712B09168120C
:101E50000397A105B10560F180918112882331F0CB
:101E600082E090E090936C1280936B1280916B12E1
:101E700090916C120097E1F00E94AE0E67E474E05E
:101E800083E893E10E94A60E61EC78E083E893E199
:101E90000E94A60E67E470E183E893E10E94A60E1B
:101EA0006AE070E080916B1290916C120C94920E2B
:101EB00008950F931F93CF93DF932091AC1130912E
:101EC000AD118091AA119091AB1128173907B1F08B
:101ED0006CED75E083E893E10E94A60E8091AA1153
:101EE0009091AB116AE070E00E94920E8091AA116D
:101EF0009091AB119093AD118093AC118091AA1188
:101F00009091AB119093AF118093AE1120912C0260
:101F100030912D028091AE119091AF11C3E0D0E0CD
:101F20002817390761F04091AE115091AF1191E03F
:101F300080E0241735070CF490E0C92FD82F80914A
:101F4000AE119091AF1190932D0280932C02C2306C
:101F5000D10510F410922E0283E00E940B05892B0C
:101F600039F50E94C2060091B1111091B211209171
:101F7000B3113091B411601B710B820B930B63335F
:101F800071058105910550F08091B011882331F0E1
:101F90001092B01110922E02C2E0D0E00E94C20650
:101FA0006093B1117093B2118093B3119093B411F7
:101FB000C330D10571F061E086E10E94340561E033
:101FC00070E080E090E00E94900660E086E10E9470
:101FD0003405CE01DF91CF911F910F91089581E0DB
:101FE00080932E0283E090E020912E02222319F0AC
:101FF0000E94590FF9CF08958F929F92AF92BF928E
:10200000CF92DF92EF92FF920F931F93CF93DF93C4
:102010008C01CB01BA0120E030E543EC57E40E948B
:1020200005486B017C010E941E4A4B015C0162EE77
:1020300075E083E893E10E94A60EC501B4010E94F9
:10204000270DE801CC0FDD1FCC0FDD1FC252DF4F83
:10205000B501A401CE010E944F0961EF75E083E84C
:1020600093E10E94A60E6AE070E0C8010E94920E01
:1020700060E170E0CE010E94920E40E150E0C701A5
:10208000B601DF91CF911F910F91FF90EF90DF90FC
:10209000CF90BF90AF909F908F900C94430ECF93B2
:1020A000DF93FC016330710519F182819381892BE3
:1020B00009F1EB016BE174E083E893E10E94A60E65
:1020C00061EC78E083E893E10E94A60E63E076E09D
:1020D00083E893E10E94A60E6AE070E0CE010E94C0
:1020E000920E60E070E080E89FEBDF91CF91089561
:1020F000BB96DBCF6685778580899189F6CFCF93B4
:10210000DF93FC016330710539F16430710531F101
:102110006230710531F582819381892B29F1EB01C0
:1021200064E074E083E893E10E94A60E61EC78E03D
:1021300083E893E10E94A60E63E076E083E893E1F2
:102140000E94A60E6AE070E0CE010E94920E8FEF10
:102150009FEFDF91CF910895BB96DDCFEA5AFF4FF5
:10216000DACFF0E0E0E0D7CF84859585F2CF0E940A
:10217000590F029709F498C061E086E00E94DB0BDA
:1021800063E97BE084E897E10E94A60E62E086E0C6
:102190000E94DB0B63E97BE084E897E10E94A60ED6
:1021A00060E083E00E94DB0B68E176E084E897E181
:1021B0000E94A60E61E080E00E94DB0B69E276E0FF
:1021C00084E897E10E94A60E70E060E08FE095E160
:1021D0000E947F104AE050E0BC0184E897E10E9431
:1021E000580E61E08AE00E94DB0B6DE276E084E845
:1021F00097E10E94A60E62E070E08FE095E10E94F8
:102200007F104AE050E0BC0184E897E10E94580E3C
:1022100062E080E00E94DB0B62E376E084E897E115
:102220000E94A60E61E070E08FE095E10E947F10B1
:102230004AE050E0BC0184E897E10E94580E62E059
:102240008AE00E94DB0B66E376E084E897E10E9477
:10225000A60E63E070E08FE095E10E947F104AE0F7
:1022600050E0BC0184E897E10E94580E63E087E0EB
:102270000E94DB0B6BE376E084E897E10E94A60EF8
:1022800064E070E08FE095E10E947F104AE050E04A
:10229000BC0184E897E10E94580E64EF71E080E091
:1022A00090E00E94900663CF0895EF92FF920F9303
:1022B0001F93CF93DF93EC01F62EE72E6FE575E0C9
:1022C00083E893E10E94A60E8E0106581F4FF80185
:1022D000808182FF05C0F2FC03C0CE010E9420096C
:1022E000F801808183FF06C0F3FC04C0CE018B9609
:1022F0000E942009F801808184FF0CC0F4FC0AC010
:10230000CA5ADF4F1C821D821E821F8218861986C0
:102310001A861B86F801F082E182DF91CF911F912E
:102320000F91FF90EF9008958F929F92AF92BF927E
:10233000CF92DF92EF92FF920F931F93CF93DF9391
:102340008C01D62EC72E7A010E94C2060E94C206B8
:102350004B015C0183E08D1528F1F801C281D38126
:10236000F2E0DF1609F485C0D81609F485C081E0D3
:10237000D81609F47BC0C46ED16440E050E863E035
:10238000F80184810E94F60850E040E062E0F80124
:1023900084810E94F608AE01506861E0F8018481F2
:1023A0000E94F608F80185810E940B05892B59F0DF
:1023B0000E94C206681979098A099B09663071056D
:1023C0008105910578F30E94C206681979098A0986
:1023D0009B09663071058105910508F450C060E4E1
:1023E00076E083E893E10E94A60EF801448150E074
:1023F00070E060E02AE083E893E10E94DB0C6BE789
:1024000076E083E893E10E94A60E4AE050E06D2D4D
:102410007C2D83E893E10E94580E65E876E083E81E
:1024200093E10E94A60E2AE046E050E060E070E0F2
:1024300083E893E10E94DB0C6DE575E083E893E1AE
:102440000E94B90CF70110821182128213828DEF63
:102450009FEFDF91CF911F910F91FF90EF90DF9051
:10246000CF90BF90AF909F908F900895C46ED1652C
:1024700084CFC46ED16681CFC46ED1677ECFF801A0
:10248000C48181E08093E512C093E4121092E312BC
:102490001092E21260E080E294E10E94450780E23F
:1024A00094E10E94740762E08C2F0E940D06109246
:1024B00097128093961280E294E10E94FE06C82F44
:1024C00080E294E10E94FE0660E07C2F682BF80118
:1024D000818102C0769567958A95E2F7072E000CF8
:1024E000880B990B0E94A64720E030E0A9010E94CA
:1024F00040494B015C0166E976E083E893E10E9484
:10250000A60E4AE050E06D2D7C2D83E893E10E94F9
:10251000580E63EA76E083E893E10E94A60EF80184
:10252000448150E070E060E02AE083E893E10E949B
:10253000DB0C62EB76E083E893E10E94A60EF801E3
:10254000458150E070E060E02AE083E893E10E947A
:10255000DB0C63EC76E083E893E10E94A60E42E098
:1025600050E0C501B4010E94430E2FE632E143E082
:1025700059E3C501B4010E940548F70160837183E6
:102580008283938390E080E064CFCF93DF93EC016C
:102590000E9493056AEC76E083E893E10E94A60E20
:1025A000498150E070E060E02AE083E893E10E9416
:1025B000DB0C6DE575E083E893E1DF91CF910C943E
:1025C000B90C2F923F924F925F926F927F928F92AF
:1025D0009F92AF92BF92CF92DF92EF92FF920F93B2
:1025E0001F93CF93DF93CDB7DEB72E970FB6F89436
:1025F000DEBF0FBECDBF8C018AEF282E83E0382EC0
:102600008CE090E09E878D8719861A861B861C8633
:102610001D821E821F82188619821A821B821C82CA
:10262000C12CD12C76018D859E850E94A20ABC0109
:10263000990F880B990B0E94A64720E030E04AE7EB
:1026400054E40E94AC492B013C01ED85FE85319696
:10265000FE87ED87F101619171911F01072E000C3A
:10266000880B990B0E94A64720E030E040E251E43D
:102670000E94AC494B015C01AC019B01C701B60152
:102680000E9440496B017C01A301920169817A811A
:102690008B819C810E94404969837A838B839C83D0
:1026A000A5019401C501B4010E9405489B01AC013C
:1026B0006D817E818F8198850E9440496D837E83E4
:1026C0008F839887A5019401C301B2010E94054838
:1026D0009B01AC0169857A858B859C850E94404968
:1026E00069877A878B879C878D859E85419709F0BE
:1026F0009ACF20E030E040EA50E46D817E818F8106
:1027000098850E9405484B015C01A7019601C7010D
:10271000B6010E9405489B01AC01C501B4010E94AD
:102720003F494B015C0120E030E0A9010E949F4736
:10273000882309F461C020E030E040EA50E4698574
:102740007A858B859C850E9405482B013C01298157
:102750003A814B815C81C701B6010E9405489B010B
:10276000AC01C301B2010E943F49A50194010E943E
:10277000AC49F801648B758B868B978B2D813E81DC
:102780004F81588569817A818B819C810E9405489F
:102790002B013C0129853A854B855C85C701B60133
:1027A0000E9405489B01AC01C301B2010E943F4950
:1027B000A50194010E94AC49F801608F718F828F4E
:1027C000938F90E080E02E960FB6F894DEBF0FBE98
:1027D000CDBFDF91CF911F910F91FF90EF90DF90D0
:1027E000CF90BF90AF909F908F907F906F905F90B1
:1027F0004F903F902F900895F801148A158A168AF9
:10280000178A108E118E128E138E62EE73E083E89B
:1028100093E10E94A60E61EC78E083E893E10E94C8
:10282000A60E66ED76E083E893E10E94A60E6AE0CC
:1028300070E088EF9FEF0E94920E88EF9FEFC3CF6A
:10284000CF93DF93EC0165E97BE08A3091052CF0B2
:102850008436910534F466E97BE084E897E10E94D0
:10286000A60E4AE050E0BE0184E897E1DF91CF91E7
:102870000C94580EFC0180819181009711F00C940A
:102880005A4360E070E0CB010895FC0180819181A2
:10289000009711F00C945E4360E070E0CB01089566
:1028A000FC0124813581232B39F421E0FB01808157
:1028B000882349F020E007C0808191810E94D84B95
:1028C00021E0892BB9F7822F0895FC0124813581FD
:1028D000FB014481558124173507E1F4FC01808117
:1028E0009181FB01608171810097D1F061157105C3
:1028F000A1F4232BC1F0FC01808190E008C0232BC0
:1029000091F0FB01808190E091958195910921E002
:10291000892B09F020E0822F08950E94D84BF7CF31
:102920006115710561F721E0F6CF0F931F93CF93E7
:10293000DF938C01EB01FC01808191810097E1F034
:102940006881798161157105A9F0428153812C81DB
:102950003D814217530770F00E94E14B8C819D81AD
:10296000F801958384831D821C82DF91CF911F9192
:102970000F9108950E94D14288819981F801918335
:1029800080838A819B81938382838C819D819583BF
:102990008483198218821B821A82E5CFCF93DF933A
:1029A000EC0188819981009711F00E94D14219822F
:1029B00018821D821C821B821A82DF91CF9108959A
:1029C000FC0180819181009711F00C94D14208950F
:1029D000CF93DF93EC010E960E94E014CE01029695
:1029E000DF91CF910C94E0140F931F93CF93DF935B
:1029F000EC0188819981009759F02A813B81261743
:102A0000370730F081E0DF91CF911F910F9108954A
:102A10008B016F5F7F4F0E94E94A009759F09983BD
:102A200088831B830A832C813D81232B59F7FC016A
:102A30001082E8CF80E0E7CFEF92FF920F931F93D1
:102A4000CF93DF936115710541F480E0DF91CF9161
:102A50001F910F91FF90EF90089541155105B1F02E
:102A60007B01EC010C811D81040F151FB8010E9430
:102A7000F414882351F3288139818C819D81B70119
:102A8000820F931F0E94E14B1D830C8381E0DECFF8
:102A9000EF92FF920F931F93CF93DF9300D000D05C
:102AA0001F921F92CDB7DEB77C01CB014AE08E01A9
:102AB0000F5F1F4FB8010E948543F801019000206D
:102AC000E9F73197AF01401B510BB801C7010E94D4
:102AD0001C1528960FB6F894DEBF0FBECDBFDF9150
:102AE000CF911F910F91FF90EF900895611571059F
:102AF00051F0FB0101900020E9F73197AF01461B2F
:102B0000570B0C941C1580E00895EF92FF920F93E1
:102B10001F93CF93DF93EC017B018A01BA010E94DE
:102B2000F41481110BC0CE010E94CE14CE01DF91AE
:102B3000CF911F910F91FF90EF9008951D830C830B
:102B4000B701888199810E94E14BF0CFFB01019090
:102B50000020E9F73197AF01461B570B0C94851500
:102B6000FB01DC0111961C921E9213961C921E9280
:102B7000129715961C921E9214978617970759F074
:102B8000608171816115710521F0448155810C943A
:102B900085150C94CE1408950F931F93CF93DF9354
:102BA000EC018B01FB0121913191BF01FC012193CB
:102BB0003193CF010E94B015F801808591859987E6
:102BC0008887828593859B878A87848595859D875D
:102BD0008C87B801625F7F4FCE010E960E94B015C0
:102BE000F801848995899D8B8C8B868997899F8B29
:102BF0008E8B808D918D998F888FDF91CF911F91D2
:102C00000F910895FC0111821082138212821582A5
:102C10001482FB0101900020E9F73197AF01461BB8
:102C2000570B0C948515CF92DF92EF92FF920F9382
:102C30001F93CF93DF936C017B018A0146175707DF
:102C400020F48F2D7A01062F182F6FE575E0C6014D
:102C50000E940216C0918314D0918414EC16FD06D4
:102C6000F8F40C171D0708F4E801E0917F14F091C7
:102C70008014EC0FFD1F1081108260917F14709101
:102C800080146E0D7F1DC6016115710599F00E94BB
:102C9000A61580917F1490918014C80FD91F1883B6
:102CA000C601DF91CF911F910F91FF90EF90DF90C0
:102CB000CF9008950E94CE14ECCFFF920F931F93F4
:102CC000CF93DF9300D000D0CDB7DEB76FE575E0CE
:102CD000CE0101960E9402160E94ED0B10E000E06A
:102CE00026E0F22E602F80E00E94DB0B80914414DE
:102CF00067EB79E08017110611F066E97BE0CE0101
:102D000001960E94A61580914514800F912F911D68
:102D1000F89EF001F99EF00D1124EA5FF84E44810F
:102D2000558160817181CE0101960E941C15E09150
:102D30004514E00FF12FF11D3197E830F10528F52A
:102D40008827EA55F94E8F4F0C94CD4AAE16BD1622
:102D5000E216ED16F816031708171A176091CA1530
:102D60007091CB15CE0101960E94481565EF76E073
:102D7000CE0101960E94761508C06091E41570910D
:102D8000E515CE0101960E944815BE016F5F7F4F89
:102D900084E897E10E9489030F5F1F4F04301105FB
:102DA00009F0A0CFCE0101960E94E01426960FB63E
:102DB000F894DEBF0FBECDBFDF91CF911F910F9171
:102DC000FF9008956091FE157091FF15CE01019658
:102DD0000E94481561EF70E1CBCF65E478E0CE0149
:102DE00001960E9476156091181670911916C9CF38
:102DF0006091321670913316CE0101960E944815EB
:102E000068EF76E0B5CF60914C1670914D16F4CF17
:102E1000E1E08091661690916716892B09F4E0E055
:102E2000E0934F14F0E0EE0FFF1FEB5EFA4F60816E
:102E300071819ECFE1E08091801690918116892B5F
:102E400009F4E0E0E0935014F0E0EE0FFF1FEF5EB6
:102E5000FA4FEDCFCF93DF93EC016730710548F562
:102E6000FB018827E95CF84E8F4F0C94CD4A3E1742
:102E700047174A174D175017531756176AE577E04B
:102E8000CE010E940216CE01DF91CF9108956EEF20
:102E900076E0F6CF68E277E0F3CF67E177E0F0CF56
:102EA00064E277E0EDCF62E377E0EACF6DE477E0CC
:102EB000E7CF66E677E0E4CF8F929F92AF92BF9222
:102EC000CF92DF92EF92FF920F931F93CF93DF93F6
:102ED000CDB7DEB761970FB6F894DEBF0FBECDBF9A
:102EE0008C016B01B22EA32E942E852E6FE575E01A
:102EF0000E9402161A8219821C821B821E821D8267
:102F000084E2888B198ABE01605F7F4FCE010196F3
:102F10007C010E94A615B701C8010E949514C70143
:102F20000E94E01469ED75E0C8010E947615F60173
:102F30004481558160817181C8010E941C1566E73A
:102F400077E0C6010E945014811108C069E777E05C
:102F5000C6010E945014882309F45CC08F929F928E
:102F6000AF92BF928CE797E09F938F93FF92EF927F
:102F70000E94E84BB701C8010E94761562E877E02D
:102F800083E893E10E94A60EB60183E893E10E94D4
:102F9000890368E977E083E893E10E94A60E6B2D30
:102FA0007A2D892D982D0E94270D68E977E083E816
:102FB00093E10E94A60EB70183E893E10E94B90C49
:102FC0006DE575E083E893E10E94B90C0FB6F894C3
:102FD000DEBF0FBECDBF86E2888B198A41E050E08C
:102FE000BE01605F7F4FC8010E941C15C801619639
:102FF0000FB6F894DEBF0FBECDBFDF91CF911F910A
:103000000F91FF90EF90DF90CF90BF90AF909F9087
:103010008F9008958F929F92AF92BF928DE997E023
:103020009F938F93FF92EF920E94E84BB701C801E4
:103030000E947615CBCFCF92DF92EF92FF920F9343
:103040001F93CF93DF93CDB7DEB768970FB6F89491
:10305000DEBF0FBECDBF8C016A017B016FE575E05D
:10306000CE010D960E9402166FE575E0CE014396E3
:103070000E94021661E973E0C8010E94651462E5CE
:103080007AE081112EC063E473E0C8010E946514E8
:1030900062EA77E0811125C067E773E0C8010E940A
:1030A00065146AE57AE081111CC06FE073E0C80125
:1030B0000E94651465EA77E0811113C06DE872E043
:1030C000C8010E94651466E777E081110AC063E7D2
:1030D00072E0C8010E946514882309F446C069E7BC
:1030E00077E0CE010D960E94A615BE01635F7F4F6B
:1030F000CE0101960E94B015A7019601BE016F5F37
:103100007F4FCE0107960E945C17BE01695F7F4F1B
:10311000CE0143960E949514CE0107960E94E014BA
:10312000CE0101960E94E014BE016D5E7F4F86EED7
:1031300092E10E94890310E000E0CE0143960E94D4
:10314000E014CE010D960E94E014C80168960FB6F7
:10315000F894DEBF0FBECDBFDF91CF911F910F91CD
:10316000FF90EF90DF90CF90089566E374E083E8DE
:1031700093E10E94A60E61EC78E083E893E10E945F
:10318000A60E68EA77E083E893E10E94A60E6AE063
:1031900070E08FEF9FEF0E94920E0FEF1FEFCDCFE9
:1031A0008F929F92AF92BF92CF92DF92EF92FF9257
:1031B0000F931F93CF93DF93CDB7DEB76A970FB608
:1031C000F894DEBF0FBECDBF8C018130910551F068
:1031D00020F0029761F0F12C0FC010923914109278
:1031E0003814F9CF9093391480933814F4CF81E0D8
:1031F00080933514FF24F3940E94C20680904614F5
:1032000090904714A0904814B09049146819790917
:103210008A099B09653F71408105910520F40330BF
:10322000110509F42DC10E94C206609346147093E3
:103230004714809348149093491460E088E00E94FA
:10324000DB0B80913614909137141AE1189FB0016E
:10325000199F700D112464567A4E84E897E10E94FC
:1032600089036DEC77E083E893E10E94A60E8091DC
:10327000361490913714C0903614D0903714189F9C
:10328000F001199FF00D1124E656FA4E80850E9438
:10329000CB051C9DF0011D9DF00D1124E656FA4E44
:1032A000918F808F8091361490913714189FF00180
:1032B000199FF00D1124E656FA4E6AE070E0808DF9
:1032C000918D0E94920E61E080E00E94DB0B60EE27
:1032D00077E084E897E10E94A60E61E088E00E9412
:1032E000DB0B6091361470913714809136149091F5
:1032F0003714189FF001199FF00D1124E656FA4E6D
:10330000808D918D0E9491020E94201463E97BE0E0
:1033100084E897E10E94A60E61E08FE00E94DB0B3B
:103320008091361490913714189FB001199F700D39
:10333000112468557A4E84E897E10E94890365E973
:103340007BE084E897E10E94A60E62E080E00E94A4
:10335000DB0B69EE77E084E897E10E94A60E62E05D
:1033600088E00E94DB0B8091361490913714189FEF
:10337000F001199FF00D1124E656FA4E86899789BF
:103380000E94201463E97BE084E897E10E94A60E86
:1033900062E08FE00E94DB0B80913614909137142D
:1033A000189FB001199F700D112468557A4E84E85A
:1033B00097E10E94890363E080E00E94DB0B80912B
:1033C000381490913914019709F07BC062EF77E0CF
:1033D00084E897E10E94A60E63E97BE084E897E128
:1033E0000E94A60E69EF77E084E897E10E94A60E9E
:1033F00020919312309194124091361450913714C9
:103400008AE1849FF001859FF00D1124E656FA4E63
:10341000408D518DB901641B750B161617060CF003
:103420005FC04091361450913714849FF001859FFE
:10343000F00D1124E656FA4E808D918DA901481B9E
:10344000590BCA01069754F00E94C20660933E14BD
:1034500070933F14809340149093411480913614DC
:10346000909137142AE1289FF001299FF00D112433
:10347000E656FA4E808D918D90939412809393121C
:10348000FF2061F08091381490913914892BC1F597
:1034900063E178E084E897E10E94A60E6A960FB691
:1034A000F894DEBF0FBECDBFDF91CF911F910F917A
:1034B000FF90EF90DF90CF90BF90AF909F908F9054
:1034C000089562E078E084E897E10E94A60E63E93F
:1034D0007BE084E897E10E94A60E69E078E084CF63
:1034E0004091361450913714849FF001859FF00D60
:1034F0001124E656FA4E808D918D821B930BA2CF3C
:1035000080913614909137141AE1189FB001199FD9
:10351000700D112466567A4ECE0101960E94CC158C
:10352000E0903614F0903714CE0101960E94E30229
:103530001E9DF0011F9DF00D1124E656FA4E978B4B
:10354000868BCE0101960E94E814809136149091EA
:103550003714189FB001199F700D112466567A4ECA
:10356000CE0101960E94CC15CE0101960E942E0933
:10357000CE0101960E94E814809136149091371480
:10358000189FF001199FF00D1124E656FA4EC688D7
:10359000D7880D2C000CEE08FF088091361490910E
:1035A0003714189FB001199F700D112464567A4E7C
:1035B000CE0101960E94B015B701A601CE01019679
:1035C0000E941B18CE0101960E94E01463E080E087
:1035D0000E94DB0B63E87BE084E897E10E94A60E83
:1035E00063E080E00E94DB0B64E278E084E897E12E
:1035F0000E94A60E61E086E10E94340564EF71E04E
:1036000080E090E00E94900660E086E10E94340530
:1036100045CF8F929F92AF92BF92CF92DF92EF925F
:10362000FF921F93CF93DF93CDB7DEB76A970FB6A4
:10363000F894DEBF0FBECDBF20914103309142030D
:103640004AE1429FF001439FF00D1124E656FA4EE5
:10365000E688F7888130910509F445C108F439C13D
:10366000029709F446C110E00E94C20680904614F9
:1036700090904714A0904814B090491468197909A3
:103680008A099B096D3271408105910538F480915A
:10369000911290919212892B09F474C00E94C20673
:1036A0006093461470934714809348149093491480
:1036B0002091361430913714809141039091420348
:1036C0002817390709F042C120914D0330914E036C
:1036D00040914B0350914C0380914A1490914B14AC
:1036E0006091911270919212860F971F841795071F
:1036F0002CF0281739070CF427C19C0130934B1488
:1037000020934A1461E085E00E94DB0B61E083E0D6
:103710000E94DB0B60E378E084E897E10E94A60E4C
:1037200040914A1450914B1470E060E02AE084E824
:1037300097E10E94DB0C62E083E00E94DB0B6CE30C
:1037400078E084E897E10E94A60E4AE050E0B701D5
:1037500084E897E10E94580E8091410390914203C2
:103760002AE1289FF001299FF00D1124E656FA4E18
:1037700080914A1490914B14918F808F10929212E5
:1037800010929112112309F492C0809136149091F5
:1037900037141AE1189FB001199F700D1124665655
:1037A0007A4ECE0101960E94CC15E0903614F0902E
:1037B0003714CE0101960E94E3021E9DF0011F9D69
:1037C000F00D1124E656FA4E978B868BCE010196AA
:1037D0000E94E8148091361490913714189FB0011C
:1037E000199F700D112466567A4ECE0101960E94E3
:1037F000CC15CE0101960E942E09CE0101960E94A1
:10380000E81460913614709137144AE050E083E870
:1038100093E10E94580E8091361490913714189FAE
:10382000F001199FF00D1124E656FA4EC688D7888C
:103830000D2C000CEE08FF0880913614909137147F
:10384000189FB001199F700D112464567A4ECE0155
:1038500001960E94B015B701A601CE0101960E9403
:103860001B18CE0101960E94E01463E080E00E94E4
:10387000DB0B63E87BE084E897E10E94A60E63E03F
:1038800080E00E94DB0B6DE578E084E897E10E9420
:10389000A60E61E086E10E94340564EF71E080E0ED
:1038A00090E00E94900660E086E10E9434056A96EE
:1038B0000FB6F894DEBF0FBECDBFDF91CF911F9141
:1038C000FF90EF90DF90CF90BF90AF909F908F9040
:1038D0000895809191129091921201969093921274
:1038E00080939112C0CE8091911290919212019783
:1038F000F5CF81E080933514809136149091371480
:103900002817390731F480914A1490914B14978B02
:10391000868B809136149091371420912703309133
:1039200028038217930771F42AE1289FF001299F49
:10393000F00D1124E656FA4E80914C1490914D14DE
:10394000978B868B11E090CE9A01D8CE4091361499
:1039500050913714809127039091280348175907F5
:1039600009F00CCF809133039091340360913103BF
:1039700070913203A0913B03B0913C03E09191120E
:10398000F0919212AE9F9001AF9F300DBE9F300D0F
:103990001124E0914C14F0914D142E0F3F1F261767
:1039A000370724F08217930724F1C90190934D142F
:1039B00080934C142AE1249FF001259FF00D1124DF
:1039C000E656FA4E918F808F61E085E00E94DB0B16
:1039D00080914C1490914D140E94201463E080E07B
:1039E0000E94DB0B68E478E084E897E10E94A60E71
:1039F000C5CECB01DBCF8F929F92AF92BF92CF9279
:103A0000DF92EF92FF920F931F93CF93DF93CDB787
:103A1000DEB76A970FB6F894DEBF0FBECDBF8091B8
:103A20003214909133148330910509F44BC108F599
:103A300081309105C1F1029709F44BC064E075E053
:103A400083E893E10E94A60E61EC78E083E893E1BD
:103A50000E94A60E6CE27AE083E893E10E94A60E33
:103A600080913214909133146AE070E00E94920EBB
:103A700041C18430910509F450C10597F9F61092BF
:103A8000431410923914109238140E94C2066093A5
:103A90003A1470933B1480933C1490933D1481E04E
:103AA00080934E140FC081E080934E141092431403
:103AB0000E94C20660933A1470933B1480933C14A6
:103AC00090933D1482E090E09093331480933214ED
:103AD000F6C00E94C20600913A1410913B14209146
:103AE0003C1430913D14601B710B820B930B6938B1
:103AF000734181059105C8F064E075E083E893E1C6
:103B00000E94A60E61EC78E083E893E10E94A60E85
:103B10006AE17AE083E893E10E94A60E6AE070E031
:103B200090E080E00E94920E58C0109243141092D0
:103B30004E140E94590F8130910509F469C008F4B0
:103B40004FC08230910509F46FC0039709F05AC045
:103B500080914314882309F4A4C080914414909167
:103B60004514890F9927991F1AE1189FF001199F91
:103B7000F00D1124E656FA4E2081318168EF74E091
:103B80008217930709F454C083E893E10E94A60EBC
:103B900061EC78E083E893E10E94A60E6EE678E09F
:103BA00083E893E10E94A60E6AE070E090E080E076
:103BB0000E94920E0E94ED0B60E081E00E94DB0B00
:103BC0006BE778E084E897E10E94A60E80913614B6
:103BD00090913714892B09F05DC086E090E05CC0BD
:103BE000809144148F5F843018F4809344140AC089
:103BF00083E080934414809145148F5F8A3030F4C1
:103C00008093451481E080934E14A2CF89E0F8CFD1
:103C100080914414811106C080914514882391F34A
:103C20008150EECF8150E1CF81E080934314EACF01
:103C300083E893E10E94A60E61EC78E083E893E1CB
:103C40000E94A60E61E978E083E893E10E94A60E47
:103C50006AE070E090E080E00E94920E20914414AF
:103C600080914514280F3327331F129FC001139FE3
:103C7000900D112484569A4E0E94C80C80914414D1
:103C800090914514890F9927991F90933714809329
:103C900036149CCF83E090E09093331480933214D9
:103CA00029C080914E14882329F10E94C206609396
:103CB0003A1470933B1480933C1490933D140E94EB
:103CC0005D1618C00E94ED0B109235141092391435
:103CD0001092381484E090E090933314809332145F
:103CE0000E94C20660933E1470933F148093401468
:103CF000909341146A960FB6F894DEBF0FBECDBF05
:103D0000DF91CF911F910F91FF90EF90DF90CF90B7
:103D1000BF90AF909F908F9008950E94590F8C0193
:103D2000039751F00E94C20660933E1470933F14B3
:103D30008093401490934114E0913614F09137141D
:103D40003197EA30F10508F09DC18827E555F14E1D
:103D50008F4F0C94CD4AF320F320B51EEF20EF20B7
:103D6000F320F720AD212D2232238091671490910A
:103D70006814892B59F46091891570918A1564FD36
:103D800005C060618FE095E10E9455110130110579
:103D900059F028F00230110561F0F12C13C0109297
:103DA000391410923814F9CF109339140093381441
:103DB000F4CF109268141092671481E08093351448
:103DC000FF24F3940E94C2068090461490904714FA
:103DD000A0904814B0904914681979098A099B0980
:103DE0006D3271408105910520F40330110509F40D
:103DF00026C10E94C20660934614709347148093B4
:103E000048149093491460E080E00E94DB0B6DE958
:103E100078E084E897E10E94A60E609169147091A1
:103E20006A1480916B1490916C140E941E4A4AE0AF
:103E300050E084E897E10E94580E61EF70E184E859
:103E400097E10E94A60E6DEC77E083E893E10E9473
:103E5000A60E8091361490913714C0903614D090ED
:103E600037141AE1189FF001199FF00D1124E6563E
:103E7000FA4E80850E94CB051C9DF0011D9DF00D22
:103E80001124E656FA4E918F808F809136149091CE
:103E90003714189FF001199FF00D1124E656FA4EC1
:103EA0006AE070E0808D918D0E94920E61E080E06A
:103EB0000E94DB0B6AEA78E084E897E10E94A60E94
:103EC00066E97BE084E897E10E94A60E61E08BE062
:103ED0000E94DB0B60913614709137148091361478
:103EE00090913714189FF001199FF00D1124E65698
:103EF000FA4E808D918D0E9491020E942014809133
:103F0000361490913714189FB001199F700D112429
:103F100068557A4E84E897E10E94890362E080E068
:103F20000E94DB0B67EB78E084E897E10E94A60E25
:103F300062E08BE00E94DB0B809136149091371485
:103F4000189FF001199FF00D1124E656FA4E86894C
:103F500097890E9420148091361490913714189FED
:103F6000B001199F700D112468557A4E84E897E1CD
:103F70000E94890363E080E00E94DB0B809138148B
:103F800090913914019709F0ACC062EF77E084E8B2
:103F900097E10E94A60E64E97BE084E897E10E9425
:103FA000A60E69EF77E084E897E10E94A60E2091C3
:103FB00093123091941240913614509137148AE143
:103FC000849FF001859FF00D1124E656FA4E408D36
:103FD000518DB901641B750B161617060CF090C0B5
:103FE0004091361450913714849FF001859FF00D55
:103FF0001124E656FA4E808D918DD901A81BB90B7C
:10400000CD01069754F00E94C20660933E1470934F
:104010003F148093401490934114809136149091F2
:1040200037142AE1289FF001299FF00D1124E6564C
:10403000FA4E808D918D9093941280939312FF206D
:1040400069F08091381490913914892B09F068C077
:1040500063E178E084E897E10E94A60E8091351430
:10406000882381F063E080E00E94DB0B64EC78E061
:1040700084E897E10E94A60E64E670E080E090E09C
:104080000E94900680913514882341F085E090E0ED
:104090009093331480933214109235140E94C20608
:1040A00000913E1410913F1420914014309141141E
:1040B000601B710B820B930B69387341810591056D
:1040C00008F418CE64E075E083E893E10E94A60E40
:1040D00061EC78E083E893E10E94A60E67E17AE064
:1040E00019CD62E078E084E897E10E94A60E64E9C9
:1040F0007BE084E897E10E94A60E69E078E053CF68
:104100004091361450913714849FF001859FF00D33
:104110001124E656FA4E808D918D821B930B71CF40
:1041200080913614909137141AE1189FB001199FAD
:10413000700D112466567A4ECE0101960E94CC1560
:10414000E0903614F0903714CE0101960E94E302FD
:104150001E9DF0011F9DF00D1124E656FA4E978B1F
:10416000868BCE0101960E94E814809136149091BE
:104170003714189FB001199F700D112466567A4E9E
:10418000CE0101960E94CC15CE0101960E942E0907
:10419000CE0101960E94E81463E080E00E94DB0BF0
:1041A00063E87BE084E897E10E94A60E63E080E08C
:1041B0000E94DB0B64E278E084E897E10E94A60E9F
:1041C00061E086E10E94340564EF71E080E090E0F8
:1041D0000E94900660E086E10E9434053FCFC8014E
:1041E0000E94091B4FCFC8010E94D0184BCF01304D
:1041F000110551F028F00230110549F0F12C0CC0E6
:1042000081E080939012FACF10929012F7CF81E064
:1042100080933514FF24F3940E94C20680904614C4
:1042200090904714A0904814B090491468197909E7
:104230008A099B096D3271408105910518F403309C
:10424000110511F10E94C206609346147093471441
:10425000809348149093491461E080E00E94DB0B46
:104260008091901281116CC066ED78E084E897E14E
:104270000E94A60E62E080E00E94DB0B68EE78E010
:1042800084E897E10E94A60EFF2009F4FBCE63E0CC
:1042900080E00E94DB0B63E87BE084E897E10E940A
:1042A000A60E63E080E00E94DB0B6DE578E084E819
:1042B00097E10E94A60E8091901280934F1467E9B7
:1042C00074E1882311F063EA74E186EE92E10E94C2
:1042D000890380913614909137142AE1289FF001C8
:1042E000299FF00D1124E656FA4E80914F1490E06C
:1042F000978B868B8091361490913714289FB0014C
:10430000299F700D112466567A4ECE0101960E94A7
:10431000CC15CE0101960E942E09CE0101960E9475
:10432000E81461E086E10E94340564EF71E080E00A
:1043300090E00E94900660E086E10E943405A2CEE3
:1043400069EF78E084E897E10E94A60E62E080E0E1
:104350000E94DB0B6BE079E093CF0130110551F047
:1043600028F00230110549F0F12C0CC081E0809357
:104370005014FACF10925014F7CF81E08093351487
:10438000FF24F3940E94C206809046149090471434
:10439000A0904814B0904914681979098A099B09BA
:1043A0006D3271408105910518F40330110511F14A
:1043B0000E94C20660934614709347148093481479
:1043C0009093491461E080E00E94DB0B80915014CF
:1043D000811136C06DE179E084E897E10E94A60E74
:1043E00062E080E00E94DB0B6EE279E084E897E116
:1043F0000E94A60EFF2009F445CE63E080E00E94F3
:10440000DB0B63E87BE084E897E10E94A60E63E0A3
:1044100080E00E94DB0B6DE578E084E897E10E9484
:10442000A60E80913614909137142AE1289FF0014E
:10443000299FF00D1124E656FA4E8091501457CF63
:1044400060E479E084E897E10E94A60E62E080E0F3
:104450000E94DB0B62E579E0C9CF0E94C20660933F
:104460003E1470933F1480934014909341146CE178
:1044700070E080915114909152140E9455118091D6
:104480008E1290918F12892B79F464E679E086EE92
:1044900092E10E94A60E80918E1290918F12019649
:1044A00090938F1280938E1202301105A9F470E060
:1044B00060E080915114909152140E9455116FE662
:1044C00079E086EE92E10E94A60E81E08093351499
:1044D00010928F1210928E120E94C206C090461443
:1044E000D0904714E0904814F09049146C197D095D
:1044F0008E099F09653F71408105910520F40330C5
:10450000110509F4BFCD61E086E00E94DB0B63E991
:104510007BE084E897E10E94A60E62E086E00E94BC
:10452000DB0B63E97BE084E897E10E94A60E60E084
:1045300080E00E94DB0B6AE779E084E897E10E9463
:10454000A60E61E080E00E94DB0B69E276E084E881
:1045500097E10E94A60E60918A1270918B124AE038
:1045600050E084E897E10E94580E6FE879E083E814
:1045700093E10E94A60E6AE070E080918A12909109
:104580008B120E94920E61E08AE00E94DB0B6DE2CA
:1045900076E084E897E10E94A60E62E070E08091E8
:1045A0005114909152140E947F104AE050E0BC01D7
:1045B00084E897E10E94580E62E080E00E94DB0BE5
:1045C00062E376E084E897E10E94A60E60918C1287
:1045D00070918D124AE050E084E897E10E94580EF5
:1045E00062E57AE083E893E10E94A60E6AE070E05B
:1045F00080918C1290918D120E94920E62E08AE05E
:104600000E94DB0B66E376E084E897E10E94A60E49
:1046100063E070E080915114909152140E947F10D9
:104620004AE050E0BC0184E897E10E94580E64E043
:1046300070E080915114909152140E947F108C016F
:1046400063E087E00E94DB0B6BE376E084E897E1B0
:104650000E94A60E4AE050E0B80184E897E10E946B
:10466000580E10CD0E94C20660933E1470933F1402
:1046700080934014909341146CE170E08091511448
:10468000909152140E94551180918E1290918F1228
:10469000892B79F462E979E086EE92E10E94A60E18
:1046A00080918E1290918F12019690938F12809329
:1046B0008E120130110559F028F00230110561F019
:1046C000F12C0FC01092391410923814F9CF1093B6
:1046D000391400933814F4CF81E080933514FF240B
:1046E000F3940E94C2068090461490904714A090C4
:1046F0004814B0904914681979098A099B09653FE3
:1047000071408105910520F40330110509F4BEC004
:1047100061E086E00E94DB0B63E97BE084E897E1DF
:104720000E94A60E62E086E00E94DB0B63E97BE05C
:1047300084E897E10E94A60E60E083E00E94DB0B14
:104740006DE979E084E897E10E94A60E61E080E0DF
:104750000E94DB0B69E276E084E897E10E94A60EF6
:10476000409182125091831260918412709185124F
:1047700022E084E897E10E945D0D6FE879E083E82C
:1047800093E10E94A60E6091821270918312809133
:1047900084129091851242E050E00E94430E61E045
:1047A0008AE00E94DB0B6DE276E084E897E10E94EC
:1047B000A60E62E070E080915114909152140E9414
:1047C0004F10AB01BC0122E084E897E10E945D0D2F
:1047D00062E080E00E94DB0B62E376E084E897E130
:1047E0000E94A60E40918612509187126091881205
:1047F0007091891222E084E897E10E945D0D62E5E4
:104800007AE083E893E10E94A60E6091861270918F
:104810008712809188129091891242E050E00E94A4
:10482000430E62E08AE00E94DB0B66E376E084E8F8
:1048300097E10E94A60E63E070E080915114909180
:1048400052140E944F10AB01BC0122E084E897E1B2
:104850000E945D0D63E080E00E94DB0B80913814C4
:10486000909139140197A1F56DEA79E084E897E118
:104870000E94A60E65E97BE084E897E10E94A60EFF
:1048800069EF77E084E897E10E94A60EFF2009F423
:10489000F9CB8091381490913914892B41F563EC50
:1048A00079E084E897E10E94A60E63ED79E086EE58
:1048B00092E10E94A60E10928F1210928E1270E05A
:1048C00060E080915114909152140E945511DACBFE
:1048D00069EB79E084E897E10E94A60E65E97BE048
:1048E00084E897E10E94A60E69E078E0CBCF70E003
:1048F00060E080915114909152140E945511E09003
:104900005114F090521401E010E057016BE2A60E32
:10491000B11CC80101978230910549F0039709F451
:1049200053C00530110539F10F5F1F4FF2CFC7019A
:104930000097D1F3DC01ED91FC910480F581E02D2D
:1049400019956C01892B69F366EE74E083E893E1B5
:104950000E94A60E61EC78E083E893E10E94A60E27
:104960006EED79E083E893E10E94A60E6AE070E0C4
:10497000C6010E94920E70E060E080915114909107
:1049800052140E94551163ED79E086EE92E10E9487
:10499000A60E10928F1210928E1264E670E080E0E4
:1049A00090E00E9490066CEF79E086EE92E10E9422
:1049B000A60E63E080E00E94DB0B67E07AE084E80B
:1049C00097E10E94A60EADCCC501B2CF8F929F9207
:1049D000AF92BF92EF92FF920F931F93CF93DF930B
:1049E00000D000D0CDB7DEB77C018C01000F111FC5
:1049F000000F111F02521F4FC8010E94110A0E948E
:104A0000A6474B015C016CE37AE083E893E10E94E6
:104A1000A60E42E050E0C501B4010E94430E61EFD2
:104A200075E083E893E10E94A60E6AE070E0C7019A
:104A30000E94920EA80170E060E02AE083E893E112
:104A40000E94DB0C6DE575E083E893E10E94B90CF0
:104A500020E030E543EC57E4C501B4010E9405486D
:104A600040E150E00E94430E6DE47AE0EF2811F03F
:104A700065E57AE0CE0101960E940216C501B401F7
:104A80000E941E4AAB01BC01CE0101960E941B1878
:104A9000CE0101960E94E014C501B40126960FB61E
:104AA000F894DEBF0FBECDBFDF91CF911F910F9164
:104AB000FF90EF90BF90AF909F908F900895AF922E
:104AC000BF92CF92DF92EF92FF920F931F93CF93FB
:104AD000DF9300D000D0CDB7DEB75C0167EB79E0A3
:104AE000CE0101960E9402160E94ED0B60E080E06C
:104AF0000E94DB0B8AE08A9D80018B9D100D1124A2
:104B00000C591B4FF8016081718184E897E10E9484
:104B1000A60EF801C480D580F4E0CF16D1041CF0B5
:104B200093E0C92ED12C10E000E02AE02A9DC001BC
:104B30002B9D900D11249C012A593B4F79010C1596
:104B40001D05ACF561E0600F80E00E94DB0B5801B1
:104B50003FEFA31AB30A80913F029091400267EBA6
:104B600079E0A816B90611F066E97BE0CE0101965E
:104B70000E94A6158091251290912612080F191FE8
:104B8000000F111FF70180819181080F191FF80193
:104B900060817181CE0101960E947615BE016F5F22
:104BA0007F4F84E897E10E9489038501C8CF8091F7
:104BB000251261E0681B80E00E94DB0BCE010196AC
:104BC0000E94E01426960FB6F894DEBF0FBECDBF4C
:104BD000DF91CF911F910F91FF90EF90DF90CF90D9
:104BE000BF90AF900895CF93DF93EC0162307105D1
:104BF000F9F048F46115710579F061307105A9F09B
:104C00006DEA7AE00BC063307105A9F0643071057C
:104C1000B9F761EA7AE002C06DE57AE0CE010E9460
:104C20000216CE01DF91CF91089560E77AE0F6CFCA
:104C300063E87AE0F3CF62E97AE0F0CF4F925F92D7
:104C40006F927F92AF92BF92CF92DF92EF92FF92DC
:104C50000F931F93CF93DF9300D000D000D01F920B
:104C6000CDB7DEB78C011F82188619861A8644E1FB
:104C7000A42EB12CC12CD12C7601F801668977893C
:104C8000AE01495F5F4F808D918D0E949411039614
:104C9000A9F56FEA73E083E893E10E94A60E61EC48
:104CA00078E083E893E10E94A60E6FEB7AE083E858
:104CB00093E10E94A60E6AE070E0F8018289938970
:104CC0000E94920E8BEF9FEFF801938382838FEF08
:104CD0009FEF2A960FB6F894DEBF0FBECDBFDF91CF
:104CE000CF911F910F91FF90EF90DF90CF90BF90E9
:104CF000AF907F906F905F904F900895F80113826E
:104D0000128284899589892BA1F120E030E040E866
:104D10005EE36F81788589859A850E943F4920E00E
:104D200030E040E250E40E943F4923E333E343E3B1
:104D30005FE30E9405482B013C012AE939E949E972
:104D40005EE3F80167A170A581A592A50E940548C0
:104D5000A30192010E9440499B01AC01F80127A3E5
:104D600030A741A752A7C701B6010E9440496B0175
:104D70007C01F1E0AF1AB10809F07FCF20E030E00C
:104D800040EA51E4C701B6010E94AC49F80162A3B0
:104D900073A384A395A36FEA73E083E893E10E9471
:104DA000A60E61EC78E083E893E10E94A60E61E034
:104DB0007BE083E893E10E94A60EF8016289738983
:104DC000CE0101960E94F325CE0101960E94C80CE7
:104DD000CE0101960E94E0146FEA73E083E893E14C
:104DE0000E94A60E61EC78E083E893E10E94A60E93
:104DF00060EE7AE083E893E10E94A60EF80162A1DA
:104E000073A184A195A142E050E00E94430E20E0EE
:104E100030E543EC57E4F80162A173A184A195A1A8
:104E20000E9405480E941E4AAB01BC01F80182891C
:104E30009389880F991F880F991F82529F4F0E9454
:104E40004F096AEF7AE083E893E10E94A60EF80129
:104E500062897389CE0101960E94F325CE010196E5
:104E60000E94C80CCE0101960E94E014F8018289CC
:104E70009389880F991F880F991F60E170E0825213
:104E80009F4F0E94920E20E030E543EC57E4F8017A
:104E900062A173A184A195A10E94054840E150E060
:104EA0000E94430E90E080E014CFCF92DF92EF9209
:104EB000FF920F931F93CF93DF9300D000D0CDB715
:104EC000DEB7CC24C394D12CEE24E39486EE92E199
:104ED0000E94F503892B09F457C086EE92E10E94E7
:104EE000D303F82E84E2F8120AC0D092B611C09211
:104EF000B5116FE575E08CE294E10E94A615009172
:104F0000B5111091B6111016110604F7F9821A8224
:104F100041E050E0BE016F5F7F4F8CE294E10E9460
:104F20001C150F5F1F4F1093B6110093B51186E249
:104F3000F812CCCF0A3011054CF26CE07BE083E82C
:104F400093E10E94A60E8CE294E10E94C80C6CE2F0
:104F500074E1CE0101960E94B01569817A816115D4
:104F6000710569F04D815E818FE794E10E9485159E
:104F7000CE0101960E94E014E0926A12A7CF8FE75B
:104F800094E10E94CE14F4CF26960FB6F894DEBFBB
:104F90000FBECDBFDF91CF911F910F91FF90EF908A
:104FA000DF90CF90089580E090E0892B29F00E9457
:104FB0000B0481110E94000080E090E0892B49F0F1
:104FC00080E090E0892B29F00E94000081110E946E
:104FD000000080E090E0892B49F080E090E0892B90
:104FE00029F00E94000081110E9400000E9401042B
:104FF00081110C94552708958F929F92AF92BF9282
:10500000CF92DF92EF92FF920F931F93CF93DF9394
:1050100000D01F92CDB7DEB78C0119821A821B8295
:105020001C82FC01868D978DA0A1B1A1892B8A2BB2
:105030008B2BD9F40E94C206F801668F778F80A36C
:1050400091A360E070E0CB010F900F900F900F9054
:10505000DF91CF911F910F91FF90EF90DF90CF9054
:10506000BF90AF909F908F90089566897789AE0129
:105070004F5F5F4F808D918D0E949411039619F5BB
:1050800067EC73E083E893E10E94A60E61EC78E0A0
:1050900083E893E10E94A60E6FEB7AE083E893E148
:1050A0000E94A60E6AE070E0F801828993890E944E
:1050B000920E8BEF9FEFF8019383828360E070E0A4
:1050C00080E89FEBC1CFF80113821282C980DA8099
:1050D000EB80FC8020E030E04AE754E4C701B601F1
:1050E0000E9405480E941E4AF8017587648720E0E7
:1050F00030E040E85EE3C701B6010E943F4920E08E
:1051000030E040E250E40E943F4923E333E343E3CD
:105110005FE30E9405486B017C012AE939E949E90E
:105120005EE3F80167A170A581A592A50E940548DC
:10513000A70196010E944049F80167A370A781A7C3
:1051400092A722A133A144A155A10E943F496B011E
:105150007C01F801C686D786E08AF18A8289938924
:1051600020E030E0A9018230910509F04FC0C7016D
:10517000B6010E94544A18160CF445C0C701B60186
:1051800090580E945F4A20E030E046EB52E40E94D3
:1051900005484B015C0120E030E0A901C701B601E0
:1051A0000E94544A18160CF446C00E94C2066B01B5
:1051B0007C0120E030E040EC50E4C501B4010E94E5
:1051C000544A18160CF049C0F801868D978DA0A19D
:1051D000B1A1A7019601281B390B4A0B5B0BCA0131
:1051E000B9010E94A447A50194010E94054820E04E
:1051F00030E040E752E40E94AC49F801C68ED78EF9
:10520000E0A2F1A221CFC701B601BBCF0397C1F441
:10521000C701B6010E94544A181654F0C701B601DE
:1052200090580E945F4A20E030E048EC52E4AFCF53
:10523000C701B601F6CFB7FAB094B7F8B094B5CFBE
:10524000C701B6010E94544A812C912C54011816B2
:1052500094F30E94C2066B017C0160E070E0CB0118
:10526000CCCFCF92DF92EF92FF92CF93DF9300D01B
:1052700000D0CDB7DEB77C01039709F44EC084E0BF
:10528000E816F10409F46EC022E0E216F10409F018
:10529000D2C08091891582FFEDC060911115709187
:1052A00012156115710549F0072E000C880B990B3A
:1052B0000E94A6476B017C0118C08FE095E10E9417
:1052C000FC27209117153091181540911915509110
:1052D0001A150E9440496B017C01C0921715D092AB
:1052E0001815E0921915F0921A1520E030E0A90186
:1052F000C701B6010E949F4787FDBCC0C701B60128
:1053000026960FB6F894DEBF0FBECDBFDF91CF91CA
:10531000FF90EF90DF90CF9008958091891583FFE3
:10532000A9C060913C1570913D156115710509F09A
:10533000BBCF8AE395E10E94FC2720914215309172
:10534000431540914415509145150E9440496B0109
:105350007C01C0924215D0924315E0924415F09220
:105360004515C3CF8091891584FF84C019821A82A4
:105370001B821C826091811570918215AE014F5F76
:105380005F4F80918315909184150E94941103962C
:1053900009F56FEB74E083E893E10E94A60E61ECDF
:1053A00078E083E893E10E94A60E6FEB7AE083E851
:1053B00093E10E94A60E6AE070E0809177159091CB
:1053C00078150E94920EC12CD12C80EAE82E80EC38
:1053D000F82E8BCF109268151092671520E030E000
:1053E0004AE754E469817A818B819C810E94054857
:1053F0000E941E4A7093721560937115072E000C5F
:10540000880B990B0E94A64727E030EF46E55EE344
:105410000E94054826E434E946E95FE30E944049DA
:105420006B017C01C0926D15D0926E15E0926F15E4
:10543000F09270155ACF60ED74E083E893E10E941A
:10544000A60E61EC78E083E893E10E94A60E6DE180
:105450007BE083E893E10E94A60EB701CE0101969E
:105460000E94F325CE0101960E94C80CCE01019640
:105470000E94E014C12CD12C760140CFAF92BF9294
:10548000CF92DF92EF92FF920F931F93CF93DF9310
:10549000CDB7DEB7AE970FB6F894DEBF0FBECDBF67
:1054A0006C017E0185E1E80EF11C84E1F7011192A7
:1054B0008A95E9F70E94190F10E000E0C8010E94E8
:1054C0003129F70161937193819391937F010F5F6C
:1054D0001F4F0530110591F70E94ED0B60E080E051
:1054E0000E94DB0B65E47BE084E897E10E94A60E56
:1054F00080912712909128122AE0289FF001299F7D
:10550000F00D1124EC59FB4F80913F029091400225
:105510002091251230912612820F931F81509048BE
:10552000880F991F22813381820F931FFC016081B4
:10553000718184E897E10E94A60E61E080E00E94FC
:10554000DB0B60E57BE084E897E10E94A60E760124
:10555000EE0CFF1CEE0CFF1C81E090E08C0F9D1FF9
:10556000E80EF91E94E1E90EF11C6FE575E0CE013D
:1055700089960E94021662E080E00E94DB0BF70130
:1055800060817181828193810E941E4A072E000CE6
:10559000880B990B0E94A64720E030E040E251E4DE
:1055A0000E94AC498E010F5F1F4F22E044E00E9431
:1055B0001742FC0101900020E9F73197AF01481B29
:1055C000590BBC01CE0189960E941C1561E67BE057
:1055D000F4E0CF16D10411F066E67BE0CE018996A7
:1055E0000E9476158DA59EA5449718F466E97BE088
:1055F000F5CFBE01675D7F4F84E897E10E94890384
:105600000AE010E00E94590F5C0183E0A816B10483
:1056100049F464E170E080E090E00E94900601505F
:10562000110981F7CE0189960E94E01493E0A91632
:10563000B10409F49ACFAE960FB6F894DEBF0FBE50
:10564000CDBFDF91CF911F910F91FF90EF90DF9031
:10565000CF90BF90AF90089590E080E00E943E2AE6
:1056600081E090E00E943E2A82E090E00E943E2A83
:1056700083E090E00E943E2A0E94ED0B60E080E013
:105680000E94DB0B6EE67BE084E897E10E94A60EA9
:1056900060ED77E080E090E00C94900684E090E08C
:1056A0000C943E2A1F920F920FB60F9211240BB644
:1056B0000F922F933F934F935F936F937F938F93AB
:1056C0009F93AF93BF93EF93FF9386EE92E10E9477
:1056D0001504FF91EF91BF91AF919F918F917F91B1
:1056E0006F915F914F913F912F910F900BBE0F9053
:1056F0000FBE0F901F9018951F920F920FB60F922A
:1057000011240BB60F922F938F939F93EF93FF93D8
:10571000E091F612F091F7128081E091FC12F09185
:10572000FD1282FD1DC090818091FF128F5F8F73EB
:1057300020910013821741F0E091FF12F0E0EA514E
:10574000FD4E958F8093FF12FF91EF919F918F9166
:105750002F910F900BBE0F900FBE0F901F901895BA
:105760008081F2CF1F920F920FB60F9211240BB6C9
:105770000F922F933F934F935F936F937F938F93EA
:105780009F93AF93BF93EF93FF9383E893E10E94BE
:105790001504FF91EF91BF91AF919F918F917F91F0
:1057A0006F915F914F913F912F910F900BBE0F9092
:1057B0000FBE0F901F9018951F920F920FB60F9269
:1057C00011240BB60F922F938F939F93EF93FF9318
:1057D000E0919313F09194138081E0919913F091EB
:1057E0009A1382FD1DC0908180919C138F5F8F73EF
:1057F00020919D13821741F0E0919C13F0E0ED574A
:10580000FC4E958F80939C13FF91EF919F918F9108
:105810002F910F900BBE0F900FBE0F901F901895F9
:105820008081F2CF1F920F920FB60F9211242F9307
:105830003F938F939F93AF93BF9380911B1290914F
:105840001C12A0911D12B0911E1230911A1223E069
:10585000230F2D3758F50196A11DB11D20931A1263
:1058600080931B1290931C12A0931D12B0931E12D2
:1058700080911F1290912012A0912112B0912212BA
:105880000196A11DB11D80931F1290932012A09329
:105890002112B0932212BF91AF919F918F913F91AE
:1058A0002F910F900FBE0F901F90189526E8230F91
:1058B0000296A11DB11DD2CF1F920F920FB60F926B
:1058C00011240BB60F922F933F934F935F936F93D7
:1058D0007F938F939F93AF93BF93EF93FF93E09149
:1058E0003D02F0913E021995FF91EF91BF91AF916A
:1058F0009F918F917F916F915F914F913F912F91E8
:105900000F900BBE0F900FBE0F901F9018951F9217
:105910000F920FB60F9211240BB60F922F933F9355
:105920004F935F936F937F938F939F93AF93BF93A7
:10593000EF93FF93E0913B02F0913C021995FF91A8
:10594000EF91BF91AF919F918F917F916F915F91F7
:105950004F913F912F910F900BBE0F900FBE0F9064
:105960001F9018951F920F920FB60F9211240BB62D
:105970000F922F933F934F935F936F937F938F93E8
:105980009F93AF93BF93EF93FF93E0913102F09118
:1059900032021995FF91EF91BF91AF919F918F9135
:1059A0007F916F915F914F913F912F910F900BBE1F
:1059B0000F900FBE0F901F9018951F920F920FB669
:1059C0000F9211240BB60F922F933F934F935F9337
:1059D0006F937F938F939F93AF93BF93EF93FF93B7
:1059E000E0912F02F09130021995FF91EF91BF9154
:1059F000AF919F918F917F916F915F914F913F9167
:105A00002F910F900BBE0F900FBE0F901F90189507
:105A10001F920F920FB60F9211240BB60F922F9375
:105A20003F934F935F936F937F938F939F93AF9326
:105A3000BF93EF93FF93E0913902F0913A021995E9
:105A4000FF91EF91BF91AF919F918F917F916F9156
:105A50005F914F913F912F910F900BBE0F900FBE12
:105A60000F901F9018951F920F920FB60F9211244E
:105A70000BB60F922F933F934F935F936F937F9348
:105A80008F939F93AF93BF93EF93FF93E091370270
:105A9000F09138021995FF91EF91BF91AF919F91CD
:105AA0008F917F916F915F914F913F912F910F90C7
:105AB0000BBE0F900FBE0F901F9018951F920F9264
:105AC0000FB60F9211240BB60F922F933F934F9363
:105AD0005F936F937F938F939F93AF93BF93EF9356
